{"contracts/ZetaChainUniversalToken.sol":{"ZetaChainUniversalToken":{"abi":[{"inputs":[{"internalType":"string","name":"name_","type":"string"},{"internalType":"string","name":"symbol_","type":"string"},{"internalType":"uint8","name":"decimals_","type":"uint8"},{"internalType":"uint256","name":"initialSupply","type":"uint256"},{"internalType":"address","name":"initialOwner","type":"address"}],"stateMutability":"nonpayable","type":"constructor"},{"inputs":[{"internalType":"address","name":"spender","type":"address"},{"internalType":"uint256","name":"allowance","type":"uint256"},{"internalType":"uint256","name":"needed","type":"uint256"}],"name":"ERC20InsufficientAllowance","type":"error"},{"inputs":[{"internalType":"address","name":"sender","type":"address"},{"internalType":"uint256","name":"balance","type":"uint256"},{"internalType":"uint256","name":"needed","type":"uint256"}],"name":"ERC20InsufficientBalance","type":"error"},{"inputs":[{"internalType":"address","name":"approver","type":"address"}],"name":"ERC20InvalidApprover","type":"error"},{"inputs":[{"internalType":"address","name":"receiver","type":"address"}],"name":"ERC20InvalidReceiver","type":"error"},{"inputs":[{"internalType":"address","name":"sender","type":"address"}],"name":"ERC20InvalidSender","type":"error"},{"inputs":[{"internalType":"address","name":"spender","type":"address"}],"name":"ERC20InvalidSpender","type":"error"},{"inputs":[{"internalType":"address","name":"owner","type":"address"}],"name":"OwnableInvalidOwner","type":"error"},{"inputs":[{"internalType":"address","name":"account","type":"address"}],"name":"OwnableUnauthorizedAccount","type":"error"},{"anonymous":false,"inputs":[{"indexed":true,"internalType":"address","name":"owner","type":"address"},{"indexed":true,"internalType":"address","name":"spender","type":"address"},{"indexed":false,"internalType":"uint256","name":"value","type":"uint256"}],"name":"Approval","type":"event"},{"anonymous":false,"inputs":[{"indexed":false,"internalType":"uint256","name":"chainId","type":"uint256"},{"indexed":false,"internalType":"address","name":"contractAddress","type":"address"}],"name":"ConnectedContractSet","type":"event"},{"anonymous":false,"inputs":[{"indexed":false,"internalType":"address","name":"from","type":"address"},{"indexed":false,"internalType":"uint256","name":"destChainId","type":"uint256"},{"indexed":false,"internalType":"address","name":"to","type":"address"},{"indexed":false,"internalType":"uint256","name":"amount","type":"uint256"}],"name":"CrossChainTransferInitiated","type":"event"},{"anonymous":false,"inputs":[{"indexed":false,"internalType":"uint256","name":"sourceChainId","type":"uint256"},{"indexed":false,"internalType":"address","name":"from","type":"address"},{"indexed":false,"internalType":"address","name":"to","type":"address"},{"indexed":false,"internalType":"uint256","name":"amount","type":"uint256"}],"name":"CrossChainTransferReceived","type":"event"},{"anonymous":false,"inputs":[{"indexed":true,"internalType":"address","name":"previousOwner","type":"address"},{"indexed":true,"internalType":"address","name":"newOwner","type":"address"}],"name":"OwnershipTransferred","type":"event"},{"anonymous":false,"inputs":[{"indexed":true,"internalType":"address","name":"from","type":"address"},{"indexed":true,"internalType":"address","name":"to","type":"address"},{"indexed":false,"internalType":"uint256","name":"value","type":"uint256"}],"name":"Transfer","type":"event"},{"inputs":[],"name":"ZETACHAIN_ID","outputs":[{"internalType":"uint256","name":"","type":"uint256"}],"stateMutability":"view","type":"function"},{"inputs":[{"internalType":"address","name":"owner","type":"address"},{"internalType":"address","name":"spender","type":"address"}],"name":"allowance","outputs":[{"internalType":"uint256","name":"","type":"uint256"}],"stateMutability":"view","type":"function"},{"inputs":[{"internalType":"address","name":"spender","type":"address"},{"internalType":"uint256","name":"value","type":"uint256"}],"name":"approve","outputs":[{"internalType":"bool","name":"","type":"bool"}],"stateMutability":"nonpayable","type":"function"},{"inputs":[{"internalType":"address","name":"account","type":"address"}],"name":"balanceOf","outputs":[{"internalType":"uint256","name":"","type":"uint256"}],"stateMutability":"view","type":"function"},{"inputs":[{"internalType":"address","name":"from","type":"address"},{"internalType":"uint256","name":"amount","type":"uint256"}],"name":"burn","outputs":[],"stateMutability":"nonpayable","type":"function"},{"inputs":[{"internalType":"uint256","name":"","type":"uint256"}],"name":"connectedContracts","outputs":[{"internalType":"address","name":"","type":"address"}],"stateMutability":"view","type":"function"},{"inputs":[{"internalType":"uint256","name":"destChainId","type":"uint256"},{"internalType":"address","name":"recipient","type":"address"},{"internalType":"uint256","name":"amount","type":"uint256"}],"name":"crossChainTransfer","outputs":[],"stateMutability":"nonpayable","type":"function"},{"inputs":[],"name":"decimals","outputs":[{"internalType":"uint8","name":"","type":"uint8"}],"stateMutability":"view","type":"function"},{"inputs":[{"internalType":"address","name":"to","type":"address"},{"internalType":"uint256","name":"amount","type":"uint256"}],"name":"mint","outputs":[],"stateMutability":"nonpayable","type":"function"},{"inputs":[],"name":"name","outputs":[{"internalType":"string","name":"","type":"string"}],"stateMutability":"view","type":"function"},{"inputs":[],"name":"owner","outputs":[{"internalType":"address","name":"","type":"address"}],"stateMutability":"view","type":"function"},{"inputs":[{"internalType":"uint256","name":"sourceChainId","type":"uint256"},{"internalType":"address","name":"sender","type":"address"},{"internalType":"address","name":"recipient","type":"address"},{"internalType":"uint256","name":"amount","type":"uint256"}],"name":"receiveCrossChainTransfer","outputs":[],"stateMutability":"nonpayable","type":"function"},{"inputs":[],"name":"renounceOwnership","outputs":[],"stateMutability":"nonpayable","type":"function"},{"inputs":[{"internalType":"uint256","name":"chainId","type":"uint256"},{"internalType":"address","name":"contractAddress","type":"address"}],"name":"setConnectedContract","outputs":[],"stateMutability":"nonpayable","type":"function"},{"inputs":[],"name":"symbol","outputs":[{"internalType":"string","name":"","type":"string"}],"stateMutability":"view","type":"function"},{"inputs":[],"name":"totalSupply","outputs":[{"internalType":"uint256","name":"","type":"uint256"}],"stateMutability":"view","type":"function"},{"inputs":[{"internalType":"address","name":"to","type":"address"},{"internalType":"uint256","name":"value","type":"uint256"}],"name":"transfer","outputs":[{"internalType":"bool","name":"","type":"bool"}],"stateMutability":"nonpayable","type":"function"},{"inputs":[{"internalType":"address","name":"from","type":"address"},{"internalType":"address","name":"to","type":"address"},{"internalType":"uint256","name":"value","type":"uint256"}],"name":"transferFrom","outputs":[{"internalType":"bool","name":"","type":"bool"}],"stateMutability":"nonpayable","type":"function"},{"inputs":[{"internalType":"address","name":"newOwner","type":"address"}],"name":"transferOwnership","outputs":[],"stateMutability":"nonpayable","type":"function"}],"evm":{"bytecode":{"linkReferences":{},"object":"608060405234801561001057600080fd5b5060405161158638038061158683398101604081905261002f91610335565b848484838084846003610042838261046b565b50600461004f828261046b565b5050506001600160a01b03811661008157604051631e4fbdf760e01b8152600060048201526024015b60405180910390fd5b61008a816100c6565b50506005805460ff909216600160a01b0260ff60a01b19909216919091179055505081156100bc576100bc8183610118565b5050505050610550565b600580546001600160a01b038381166001600160a01b0319831681179093556040519116919082907f8be0079c531659141344cd1fd0a4f28419497f9722a3daafe3b4186f6b6457e090600090a35050565b6001600160a01b0382166101425760405163ec442f0560e01b815260006004820152602401610078565b61014e60008383610152565b5050565b6001600160a01b03831661017d5780600260008282546101729190610529565b909155506101ef9050565b6001600160a01b038316600090815260208190526040902054818110156101d05760405163391434e360e21b81526001600160a01b03851660048201526024810182905260448101839052606401610078565b6001600160a01b03841660009081526020819052604090209082900390555b6001600160a01b03821661020b5760028054829003905561022a565b6001600160a01b03821660009081526020819052604090208054820190555b816001600160a01b0316836001600160a01b03167fddf252ad1be2c89b69c2b068fc378daa952ba7f163c4a11628f55a4df523b3ef8360405161026f91815260200190565b60405180910390a3505050565b634e487b7160e01b600052604160045260246000fd5b600082601f8301126102a357600080fd5b81516001600160401b038111156102bc576102bc61027c565b604051601f8201601f19908116603f011681016001600160401b03811182821017156102ea576102ea61027c565b60405281815283820160200185101561030257600080fd5b60005b8281101561032157602081860181015183830182015201610305565b506000918101602001919091529392505050565b600080600080600060a0868803121561034d57600080fd5b85516001600160401b0381111561036357600080fd5b61036f88828901610292565b602088015190965090506001600160401b0381111561038d57600080fd5b61039988828901610292565b945050604086015160ff811681146103b057600080fd5b6060870151608088015191945092506001600160a01b03811681146103d457600080fd5b809150509295509295909350565b600181811c908216806103f657607f821691505b60208210810361041657634e487b7160e01b600052602260045260246000fd5b50919050565b601f82111561046657806000526020600020601f840160051c810160208510156104435750805b601f840160051c820191505b81811015610463576000815560010161044f565b50505b505050565b81516001600160401b038111156104845761048461027c565b6104988161049284546103e2565b8461041c565b6020601f8211600181146104cc57600083156104b45750848201515b600019600385901b1c1916600184901b178455610463565b600084815260208120601f198516915b828110156104fc57878501518255602094850194600190920191016104dc565b508482101561051a5786840151600019600387901b60f8161c191681555b50505050600190811b01905550565b8082018082111561054a57634e487b7160e01b600052601160045260246000fd5b92915050565b6110278061055f6000396000f3fe608060405234801561001057600080fd5b50600436106101215760003560e01c8063715018a6116100ad578063b590659f11610071578063b590659f1461027e578063dd62ed3e14610291578063f2fde38b146102ca578063f6e7393c146102dd578063f9221ef7146102f057600080fd5b8063715018a6146102375780638da5cb5b1461023f57806395d89b41146102505780639dc29fac14610258578063a9059cbb1461026b57600080fd5b806323b872dd116100f457806323b872dd14610186578063313ce5671461019957806340c10f19146101b85780636d91bfcc146101cd57806370a082311461020e57600080fd5b806306fdde0314610126578063095ea7b31461014457806315c22a291461016757806318160ddd1461017e575b600080fd5b61012e610303565b60405161013b9190610dcb565b60405180910390f35b610157610152366004610e35565b610395565b604051901515815260200161013b565b610170611b5881565b60405190815260200161013b565b600254610170565b610157610194366004610e5f565b6103af565b600554600160a01b900460ff1660405160ff909116815260200161013b565b6101cb6101c6366004610e35565b6103d3565b005b6101f66101db366004610e9c565b6006602052600090815260409020546001600160a01b031681565b6040516001600160a01b03909116815260200161013b565b61017061021c366004610eb5565b6001600160a01b031660009081526020819052604090205490565b6101cb6103e9565b6005546001600160a01b03166101f6565b61012e6103fd565b6101cb610266366004610e35565b61040c565b610157610279366004610e35565b610481565b6101cb61028c366004610ed7565b61048f565b61017061029f366004610f1b565b6001600160a01b03918216600090815260016020908152604080832093909416825291909152205490565b6101cb6102d8366004610eb5565b61065c565b6101cb6102eb366004610f4e565b610670565b6101cb6102fe366004610f73565b61088e565b60606003805461031290610f96565b80601f016020809104026020016040519081016040528092919081815260200182805461033e90610f96565b801561038b5780601f106103605761010080835404028352916020019161038b565b820191906000526020600020905b81548152906001019060200180831161036e57829003601f168201915b5050505050905090565b6000336103a38185856109b6565b60019150505b92915050565b6000336103bd8582856109c8565b6103c8858585610a47565b506001949350505050565b6103db610aa6565b6103e58282610ad3565b5050565b6103f1610aa6565b6103fb6000610b09565b565b60606004805461031290610f96565b336001600160a01b038316148061042d57506005546001600160a01b031633145b6104775760405162461bcd60e51b81526020600482015260166024820152752737ba1030baba3437b934bd32b2103a3790313ab93760511b60448201526064015b60405180910390fd5b6103e58282610b5b565b6000336103a3818585610a47565b610497610aa6565b611b5884036104e85760405162461bcd60e51b815260206004820152601e60248201527f43616e6e6f7420726563656976652066726f6d2073616d6520636861696e0000604482015260640161046e565b6000848152600660205260409020546001600160a01b031661055a5760405162461bcd60e51b815260206004820152602560248201527f4e6f20636f6e6e656374656420636f6e7472616374206f6e20736f757263652060448201526431b430b4b760d91b606482015260840161046e565b6001600160a01b0382166105ac5760405162461bcd60e51b8152602060048201526019602482015278496e76616c696420726563697069656e74206164647265737360381b604482015260640161046e565b600081116105fc5760405162461bcd60e51b815260206004820181905260248201527f416d6f756e74206d7573742062652067726561746572207468616e207a65726f604482015260640161046e565b6106068282610ad3565b604080518581526001600160a01b0385811660208301528416818301526060810183905290517f94ea98de90518192983446df327b4bba637838a5dc22acea10aa085edb4ca0829181900360800190a150505050565b610664610aa6565b61066d81610b91565b50565b611b5883036106c15760405162461bcd60e51b815260206004820152601d60248201527f43616e6e6f74207472616e7366657220746f2073616d6520636861696e000000604482015260640161046e565b6000838152600660205260409020546001600160a01b03166107385760405162461bcd60e51b815260206004820152602a60248201527f4e6f20636f6e6e656374656420636f6e7472616374206f6e2064657374696e616044820152693a34b7b71031b430b4b760b11b606482015260840161046e565b6001600160a01b03821661078a5760405162461bcd60e51b8152602060048201526019602482015278496e76616c696420726563697069656e74206164647265737360381b604482015260640161046e565b600081116107da5760405162461bcd60e51b815260206004820181905260248201527f416d6f756e74206d7573742062652067726561746572207468616e207a65726f604482015260640161046e565b336000908152602081905260409020548111156108305760405162461bcd60e51b8152602060048201526014602482015273496e73756666696369656e742062616c616e636560601b604482015260640161046e565b61083a3382610b5b565b60408051338152602081018590526001600160a01b038416818301526060810183905290517f50963a9a1e57449f5ce66906ec00c0399a28d5c46f25d2d0d266a42ce61921379181900360800190a1505050565b610896610aa6565b611b5882036108fa5760405162461bcd60e51b815260206004820152602a60248201527f43616e6e6f742073657420636f6e6e656374656420636f6e7472616374206f6e604482015269102d32ba30a1b430b4b760b11b606482015260840161046e565b6001600160a01b0381166109505760405162461bcd60e51b815260206004820152601860248201527f496e76616c696420636f6e747261637420616464726573730000000000000000604482015260640161046e565b60008281526006602090815260409182902080546001600160a01b0319166001600160a01b0385169081179091558251858152918201527f2fc33cb743ab169a721a7372c5a70bcfb722f81c08b5cac6c993f2e6d3e82e9d910160405180910390a15050565b6109c38383836001610bcc565b505050565b6001600160a01b03838116600090815260016020908152604080832093861683529290522054600019811015610a415781811015610a3257604051637dc7a0d960e11b81526001600160a01b0384166004820152602481018290526044810183905260640161046e565b610a4184848484036000610bcc565b50505050565b6001600160a01b038316610a7157604051634b637e8f60e11b81526000600482015260240161046e565b6001600160a01b038216610a9b5760405163ec442f0560e01b81526000600482015260240161046e565b6109c3838383610ca1565b6005546001600160a01b031633146103fb5760405163118cdaa760e01b815233600482015260240161046e565b6001600160a01b038216610afd5760405163ec442f0560e01b81526000600482015260240161046e565b6103e560008383610ca1565b600580546001600160a01b038381166001600160a01b0319831681179093556040519116919082907f8be0079c531659141344cd1fd0a4f28419497f9722a3daafe3b4186f6b6457e090600090a35050565b6001600160a01b038216610b8557604051634b637e8f60e11b81526000600482015260240161046e565b6103e582600083610ca1565b610b99610aa6565b6001600160a01b038116610bc357604051631e4fbdf760e01b81526000600482015260240161046e565b61066d81610b09565b6001600160a01b038416610bf65760405163e602df0560e01b81526000600482015260240161046e565b6001600160a01b038316610c2057604051634a1406b160e11b81526000600482015260240161046e565b6001600160a01b0380851660009081526001602090815260408083209387168352929052208290558015610a4157826001600160a01b0316846001600160a01b03167f8c5be1e5ebec7d5bd14f71427d1e84f3dd0314c0f7b2291e5b200ac8c7c3b92584604051610c9391815260200190565b60405180910390a350505050565b6001600160a01b038316610ccc578060026000828254610cc19190610fd0565b90915550610d3e9050565b6001600160a01b03831660009081526020819052604090205481811015610d1f5760405163391434e360e21b81526001600160a01b0385166004820152602481018290526044810183905260640161046e565b6001600160a01b03841660009081526020819052604090209082900390555b6001600160a01b038216610d5a57600280548290039055610d79565b6001600160a01b03821660009081526020819052604090208054820190555b816001600160a01b0316836001600160a01b03167fddf252ad1be2c89b69c2b068fc378daa952ba7f163c4a11628f55a4df523b3ef83604051610dbe91815260200190565b60405180910390a3505050565b602081526000825180602084015260005b81811015610df95760208186018101516040868401015201610ddc565b506000604082850101526040601f19601f83011684010191505092915050565b80356001600160a01b0381168114610e3057600080fd5b919050565b60008060408385031215610e4857600080fd5b610e5183610e19565b946020939093013593505050565b600080600060608486031215610e7457600080fd5b610e7d84610e19565b9250610e8b60208501610e19565b929592945050506040919091013590565b600060208284031215610eae57600080fd5b5035919050565b600060208284031215610ec757600080fd5b610ed082610e19565b9392505050565b60008060008060808587031215610eed57600080fd5b84359350610efd60208601610e19565b9250610f0b60408601610e19565b9396929550929360600135925050565b60008060408385031215610f2e57600080fd5b610f3783610e19565b9150610f4560208401610e19565b90509250929050565b600080600060608486031215610f6357600080fd5b83359250610e8b60208501610e19565b60008060408385031215610f8657600080fd5b82359150610f4560208401610e19565b600181811c90821680610faa57607f821691505b602082108103610fca57634e487b7160e01b600052602260045260246000fd5b50919050565b808201808211156103a957634e487b7160e01b600052601160045260246000fdfea26469706673582212206ae570fda10ffd2c25c859cecf6a33bc43250e5fbf66f82c8a4f063a9778a20864736f6c634300081a0033","opcodes":"PUSH1 0x80 PUSH1 0x40 MSTORE CALLVALUE DUP1 ISZERO PUSH2 0x10 JUMPI PUSH1 0x0 DUP1 REVERT JUMPDEST POP PUSH1 0x40 MLOAD PUSH2 0x1586 CODESIZE SUB DUP1 PUSH2 0x1586 DUP4 CODECOPY DUP2 ADD PUSH1 0x40 DUP2 SWAP1 MSTORE PUSH2 0x2F SWAP2 PUSH2 0x335 JUMP JUMPDEST DUP5 DUP5 DUP5 DUP4 DUP1 DUP5 DUP5 PUSH1 0x3 PUSH2 0x42 DUP4 DUP3 PUSH2 0x46B JUMP JUMPDEST POP PUSH1 0x4 PUSH2 0x4F DUP3 DUP3 PUSH2 0x46B JUMP JUMPDEST POP POP POP PUSH1 0x1 PUSH1 0x1 PUSH1 0xA0 SHL SUB DUP2 AND PUSH2 0x81 JUMPI PUSH1 0x40 MLOAD PUSH4 0x1E4FBDF7 PUSH1 0xE0 SHL DUP2 MSTORE PUSH1 0x0 PUSH1 0x4 DUP3 ADD MSTORE PUSH1 0x24 ADD JUMPDEST PUSH1 0x40 MLOAD DUP1 SWAP2 SUB SWAP1 REVERT JUMPDEST PUSH2 0x8A DUP2 PUSH2 0xC6 JUMP JUMPDEST POP POP PUSH1 0x5 DUP1 SLOAD PUSH1 0xFF SWAP1 SWAP3 AND PUSH1 0x1 PUSH1 0xA0 SHL MUL PUSH1 0xFF PUSH1 0xA0 SHL NOT SWAP1 SWAP3 AND SWAP2 SWAP1 SWAP2 OR SWAP1 SSTORE POP POP DUP2 ISZERO PUSH2 0xBC JUMPI PUSH2 0xBC DUP2 DUP4 PUSH2 0x118 JUMP JUMPDEST POP POP POP POP POP PUSH2 0x550 JUMP JUMPDEST PUSH1 0x5 DUP1 SLOAD PUSH1 0x1 PUSH1 0x1 PUSH1 0xA0 SHL SUB DUP4 DUP2 AND PUSH1 0x1 PUSH1 0x1 PUSH1 0xA0 SHL SUB NOT DUP4 AND DUP2 OR SWAP1 SWAP4 SSTORE PUSH1 0x40 MLOAD SWAP2 AND SWAP2 SWAP1 DUP3 SWAP1 PUSH32 0x8BE0079C531659141344CD1FD0A4F28419497F9722A3DAAFE3B4186F6B6457E0 SWAP1 PUSH1 0x0 SWAP1 LOG3 POP POP JUMP JUMPDEST PUSH1 0x1 PUSH1 0x1 PUSH1 0xA0 SHL SUB DUP3 AND PUSH2 0x142 JUMPI PUSH1 0x40 MLOAD PUSH4 0xEC442F05 PUSH1 0xE0 SHL DUP2 MSTORE PUSH1 0x0 PUSH1 0x4 DUP3 ADD MSTORE PUSH1 0x24 ADD PUSH2 0x78 JUMP JUMPDEST PUSH2 0x14E PUSH1 0x0 DUP4 DUP4 PUSH2 0x152 JUMP JUMPDEST POP POP JUMP JUMPDEST PUSH1 0x1 PUSH1 0x1 PUSH1 0xA0 SHL SUB DUP4 AND PUSH2 0x17D JUMPI DUP1 PUSH1 0x2 PUSH1 0x0 DUP3 DUP3 SLOAD PUSH2 0x172 SWAP2 SWAP1 PUSH2 0x529 JUMP JUMPDEST SWAP1 SWAP2 SSTORE POP PUSH2 0x1EF SWAP1 POP JUMP JUMPDEST PUSH1 0x1 PUSH1 0x1 PUSH1 0xA0 SHL SUB DUP4 AND PUSH1 0x0 SWAP1 DUP2 MSTORE PUSH1 0x20 DUP2 SWAP1 MSTORE PUSH1 0x40 SWAP1 KECCAK256 SLOAD DUP2 DUP2 LT ISZERO PUSH2 0x1D0 JUMPI PUSH1 0x40 MLOAD PUSH4 0x391434E3 PUSH1 0xE2 SHL DUP2 MSTORE PUSH1 0x1 PUSH1 0x1 PUSH1 0xA0 SHL SUB DUP6 AND PUSH1 0x4 DUP3 ADD MSTORE PUSH1 0x24 DUP2 ADD DUP3 SWAP1 MSTORE PUSH1 0x44 DUP2 ADD DUP4 SWAP1 MSTORE PUSH1 0x64 ADD PUSH2 0x78 JUMP JUMPDEST PUSH1 0x1 PUSH1 0x1 PUSH1 0xA0 SHL SUB DUP5 AND PUSH1 0x0 SWAP1 DUP2 MSTORE PUSH1 0x20 DUP2 SWAP1 MSTORE PUSH1 0x40 SWAP1 KECCAK256 SWAP1 DUP3 SWAP1 SUB SWAP1 SSTORE JUMPDEST PUSH1 0x1 PUSH1 0x1 PUSH1 0xA0 SHL SUB DUP3 AND PUSH2 0x20B JUMPI PUSH1 0x2 DUP1 SLOAD DUP3 SWAP1 SUB SWAP1 SSTORE PUSH2 0x22A JUMP JUMPDEST PUSH1 0x1 PUSH1 0x1 PUSH1 0xA0 SHL SUB DUP3 AND PUSH1 0x0 SWAP1 DUP2 MSTORE PUSH1 0x20 DUP2 SWAP1 MSTORE PUSH1 0x40 SWAP1 KECCAK256 DUP1 SLOAD DUP3 ADD SWAP1 SSTORE JUMPDEST DUP2 PUSH1 0x1 PUSH1 0x1 PUSH1 0xA0 SHL SUB AND DUP4 PUSH1 0x1 PUSH1 0x1 PUSH1 0xA0 SHL SUB AND PUSH32 0xDDF252AD1BE2C89B69C2B068FC378DAA952BA7F163C4A11628F55A4DF523B3EF DUP4 PUSH1 0x40 MLOAD PUSH2 0x26F SWAP2 DUP2 MSTORE PUSH1 0x20 ADD SWAP1 JUMP JUMPDEST PUSH1 0x40 MLOAD DUP1 SWAP2 SUB SWAP1 LOG3 POP POP POP JUMP JUMPDEST PUSH4 0x4E487B71 PUSH1 0xE0 SHL PUSH1 0x0 MSTORE PUSH1 0x41 PUSH1 0x4 MSTORE PUSH1 0x24 PUSH1 0x0 REVERT JUMPDEST PUSH1 0x0 DUP3 PUSH1 0x1F DUP4 ADD SLT PUSH2 0x2A3 JUMPI PUSH1 0x0 DUP1 REVERT JUMPDEST DUP2 MLOAD PUSH1 0x1 PUSH1 0x1 PUSH1 0x40 SHL SUB DUP2 GT ISZERO PUSH2 0x2BC JUMPI PUSH2 0x2BC PUSH2 0x27C JUMP JUMPDEST PUSH1 0x40 MLOAD PUSH1 0x1F DUP3 ADD PUSH1 0x1F NOT SWAP1 DUP2 AND PUSH1 0x3F ADD AND DUP2 ADD PUSH1 0x1 PUSH1 0x1 PUSH1 0x40 SHL SUB DUP2 GT DUP3 DUP3 LT OR ISZERO PUSH2 0x2EA JUMPI PUSH2 0x2EA PUSH2 0x27C JUMP JUMPDEST PUSH1 0x40 MSTORE DUP2 DUP2 MSTORE DUP4 DUP3 ADD PUSH1 0x20 ADD DUP6 LT ISZERO PUSH2 0x302 JUMPI PUSH1 0x0 DUP1 REVERT JUMPDEST PUSH1 0x0 JUMPDEST DUP3 DUP2 LT ISZERO PUSH2 0x321 JUMPI PUSH1 0x20 DUP2 DUP7 ADD DUP2 ADD MLOAD DUP4 DUP4 ADD DUP3 ADD MSTORE ADD PUSH2 0x305 JUMP JUMPDEST POP PUSH1 0x0 SWAP2 DUP2 ADD PUSH1 0x20 ADD SWAP2 SWAP1 SWAP2 MSTORE SWAP4 SWAP3 POP POP POP JUMP JUMPDEST PUSH1 0x0 DUP1 PUSH1 0x0 DUP1 PUSH1 0x0 PUSH1 0xA0 DUP7 DUP9 SUB SLT ISZERO PUSH2 0x34D JUMPI PUSH1 0x0 DUP1 REVERT JUMPDEST DUP6 MLOAD PUSH1 0x1 PUSH1 0x1 PUSH1 0x40 SHL SUB DUP2 GT ISZERO PUSH2 0x363 JUMPI PUSH1 0x0 DUP1 REVERT JUMPDEST PUSH2 0x36F DUP9 DUP3 DUP10 ADD PUSH2 0x292 JUMP JUMPDEST PUSH1 0x20 DUP9 ADD MLOAD SWAP1 SWAP7 POP SWAP1 POP PUSH1 0x1 PUSH1 0x1 PUSH1 0x40 SHL SUB DUP2 GT ISZERO PUSH2 0x38D JUMPI PUSH1 0x0 DUP1 REVERT JUMPDEST PUSH2 0x399 DUP9 DUP3 DUP10 ADD PUSH2 0x292 JUMP JUMPDEST SWAP5 POP POP PUSH1 0x40 DUP7 ADD MLOAD PUSH1 0xFF DUP2 AND DUP2 EQ PUSH2 0x3B0 JUMPI PUSH1 0x0 DUP1 REVERT JUMPDEST PUSH1 0x60 DUP8 ADD MLOAD PUSH1 0x80 DUP9 ADD MLOAD SWAP2 SWAP5 POP SWAP3 POP PUSH1 0x1 PUSH1 0x1 PUSH1 0xA0 SHL SUB DUP2 AND DUP2 EQ PUSH2 0x3D4 JUMPI PUSH1 0x0 DUP1 REVERT JUMPDEST DUP1 SWAP2 POP POP SWAP3 SWAP6 POP SWAP3 SWAP6 SWAP1 SWAP4 POP JUMP JUMPDEST PUSH1 0x1 DUP2 DUP2 SHR SWAP1 DUP3 AND DUP1 PUSH2 0x3F6 JUMPI PUSH1 0x7F DUP3 AND SWAP2 POP JUMPDEST PUSH1 0x20 DUP3 LT DUP2 SUB PUSH2 0x416 JUMPI PUSH4 0x4E487B71 PUSH1 0xE0 SHL PUSH1 0x0 MSTORE PUSH1 0x22 PUSH1 0x4 MSTORE PUSH1 0x24 PUSH1 0x0 REVERT JUMPDEST POP SWAP2 SWAP1 POP JUMP JUMPDEST PUSH1 0x1F DUP3 GT ISZERO PUSH2 0x466 JUMPI DUP1 PUSH1 0x0 MSTORE PUSH1 0x20 PUSH1 0x0 KECCAK256 PUSH1 0x1F DUP5 ADD PUSH1 0x5 SHR DUP2 ADD PUSH1 0x20 DUP6 LT ISZERO PUSH2 0x443 JUMPI POP DUP1 JUMPDEST PUSH1 0x1F DUP5 ADD PUSH1 0x5 SHR DUP3 ADD SWAP2 POP JUMPDEST DUP2 DUP2 LT ISZERO PUSH2 0x463 JUMPI PUSH1 0x0 DUP2 SSTORE PUSH1 0x1 ADD PUSH2 0x44F JUMP JUMPDEST POP POP JUMPDEST POP POP POP JUMP JUMPDEST DUP2 MLOAD PUSH1 0x1 PUSH1 0x1 PUSH1 0x40 SHL SUB DUP2 GT ISZERO PUSH2 0x484 JUMPI PUSH2 0x484 PUSH2 0x27C JUMP JUMPDEST PUSH2 0x498 DUP2 PUSH2 0x492 DUP5 SLOAD PUSH2 0x3E2 JUMP JUMPDEST DUP5 PUSH2 0x41C JUMP JUMPDEST PUSH1 0x20 PUSH1 0x1F DUP3 GT PUSH1 0x1 DUP2 EQ PUSH2 0x4CC JUMPI PUSH1 0x0 DUP4 ISZERO PUSH2 0x4B4 JUMPI POP DUP5 DUP3 ADD MLOAD JUMPDEST PUSH1 0x0 NOT PUSH1 0x3 DUP6 SWAP1 SHL SHR NOT AND PUSH1 0x1 DUP5 SWAP1 SHL OR DUP5 SSTORE PUSH2 0x463 JUMP JUMPDEST PUSH1 0x0 DUP5 DUP2 MSTORE PUSH1 0x20 DUP2 KECCAK256 PUSH1 0x1F NOT DUP6 AND SWAP2 JUMPDEST DUP3 DUP2 LT ISZERO PUSH2 0x4FC JUMPI DUP8 DUP6 ADD MLOAD DUP3 SSTORE PUSH1 0x20 SWAP5 DUP6 ADD SWAP5 PUSH1 0x1 SWAP1 SWAP3 ADD SWAP2 ADD PUSH2 0x4DC JUMP JUMPDEST POP DUP5 DUP3 LT ISZERO PUSH2 0x51A JUMPI DUP7 DUP5 ADD MLOAD PUSH1 0x0 NOT PUSH1 0x3 DUP8 SWAP1 SHL PUSH1 0xF8 AND SHR NOT AND DUP2 SSTORE JUMPDEST POP POP POP POP PUSH1 0x1 SWAP1 DUP2 SHL ADD SWAP1 SSTORE POP JUMP JUMPDEST DUP1 DUP3 ADD DUP1 DUP3 GT ISZERO PUSH2 0x54A JUMPI PUSH4 0x4E487B71 PUSH1 0xE0 SHL PUSH1 0x0 MSTORE PUSH1 0x11 PUSH1 0x4 MSTORE PUSH1 0x24 PUSH1 0x0 REVERT JUMPDEST SWAP3 SWAP2 POP POP JUMP JUMPDEST PUSH2 0x1027 DUP1 PUSH2 0x55F PUSH1 0x0 CODECOPY PUSH1 0x0 RETURN INVALID PUSH1 0x80 PUSH1 0x40 MSTORE CALLVALUE DUP1 ISZERO PUSH2 0x10 JUMPI PUSH1 0x0 DUP1 REVERT JUMPDEST POP PUSH1 0x4 CALLDATASIZE LT PUSH2 0x121 JUMPI PUSH1 0x0 CALLDATALOAD PUSH1 0xE0 SHR DUP1 PUSH4 0x715018A6 GT PUSH2 0xAD JUMPI DUP1 PUSH4 0xB590659F GT PUSH2 0x71 JUMPI DUP1 PUSH4 0xB590659F EQ PUSH2 0x27E JUMPI DUP1 PUSH4 0xDD62ED3E EQ PUSH2 0x291 JUMPI DUP1 PUSH4 0xF2FDE38B EQ PUSH2 0x2CA JUMPI DUP1 PUSH4 0xF6E7393C EQ PUSH2 0x2DD JUMPI DUP1 PUSH4 0xF9221EF7 EQ PUSH2 0x2F0 JUMPI PUSH1 0x0 DUP1 REVERT JUMPDEST DUP1 PUSH4 0x715018A6 EQ PUSH2 0x237 JUMPI DUP1 PUSH4 0x8DA5CB5B EQ PUSH2 0x23F JUMPI DUP1 PUSH4 0x95D89B41 EQ PUSH2 0x250 JUMPI DUP1 PUSH4 0x9DC29FAC EQ PUSH2 0x258 JUMPI DUP1 PUSH4 0xA9059CBB EQ PUSH2 0x26B JUMPI PUSH1 0x0 DUP1 REVERT JUMPDEST DUP1 PUSH4 0x23B872DD GT PUSH2 0xF4 JUMPI DUP1 PUSH4 0x23B872DD EQ PUSH2 0x186 JUMPI DUP1 PUSH4 0x313CE567 EQ PUSH2 0x199 JUMPI DUP1 PUSH4 0x40C10F19 EQ PUSH2 0x1B8 JUMPI DUP1 PUSH4 0x6D91BFCC EQ PUSH2 0x1CD JUMPI DUP1 PUSH4 0x70A08231 EQ PUSH2 0x20E JUMPI PUSH1 0x0 DUP1 REVERT JUMPDEST DUP1 PUSH4 0x6FDDE03 EQ PUSH2 0x126 JUMPI DUP1 PUSH4 0x95EA7B3 EQ PUSH2 0x144 JUMPI DUP1 PUSH4 0x15C22A29 EQ PUSH2 0x167 JUMPI DUP1 PUSH4 0x18160DDD EQ PUSH2 0x17E JUMPI JUMPDEST PUSH1 0x0 DUP1 REVERT JUMPDEST PUSH2 0x12E PUSH2 0x303 JUMP JUMPDEST PUSH1 0x40 MLOAD PUSH2 0x13B SWAP2 SWAP1 PUSH2 0xDCB JUMP JUMPDEST PUSH1 0x40 MLOAD DUP1 SWAP2 SUB SWAP1 RETURN JUMPDEST PUSH2 0x157 PUSH2 0x152 CALLDATASIZE PUSH1 0x4 PUSH2 0xE35 JUMP JUMPDEST PUSH2 0x395 JUMP JUMPDEST PUSH1 0x40 MLOAD SWAP1 ISZERO ISZERO DUP2 MSTORE PUSH1 0x20 ADD PUSH2 0x13B JUMP JUMPDEST PUSH2 0x170 PUSH2 0x1B58 DUP2 JUMP JUMPDEST PUSH1 0x40 MLOAD SWAP1 DUP2 MSTORE PUSH1 0x20 ADD PUSH2 0x13B JUMP JUMPDEST PUSH1 0x2 SLOAD PUSH2 0x170 JUMP JUMPDEST PUSH2 0x157 PUSH2 0x194 CALLDATASIZE PUSH1 0x4 PUSH2 0xE5F JUMP JUMPDEST PUSH2 0x3AF JUMP JUMPDEST PUSH1 0x5 SLOAD PUSH1 0x1 PUSH1 0xA0 SHL SWAP1 DIV PUSH1 0xFF AND PUSH1 0x40 MLOAD PUSH1 0xFF SWAP1 SWAP2 AND DUP2 MSTORE PUSH1 0x20 ADD PUSH2 0x13B JUMP JUMPDEST PUSH2 0x1CB PUSH2 0x1C6 CALLDATASIZE PUSH1 0x4 PUSH2 0xE35 JUMP JUMPDEST PUSH2 0x3D3 JUMP JUMPDEST STOP JUMPDEST PUSH2 0x1F6 PUSH2 0x1DB CALLDATASIZE PUSH1 0x4 PUSH2 0xE9C JUMP JUMPDEST PUSH1 0x6 PUSH1 0x20 MSTORE PUSH1 0x0 SWAP1 DUP2 MSTORE PUSH1 0x40 SWAP1 KECCAK256 SLOAD PUSH1 0x1 PUSH1 0x1 PUSH1 0xA0 SHL SUB AND DUP2 JUMP JUMPDEST PUSH1 0x40 MLOAD PUSH1 0x1 PUSH1 0x1 PUSH1 0xA0 SHL SUB SWAP1 SWAP2 AND DUP2 MSTORE PUSH1 0x20 ADD PUSH2 0x13B JUMP JUMPDEST PUSH2 0x170 PUSH2 0x21C CALLDATASIZE PUSH1 0x4 PUSH2 0xEB5 JUMP JUMPDEST PUSH1 0x1 PUSH1 0x1 PUSH1 0xA0 SHL SUB AND PUSH1 0x0 SWAP1 DUP2 MSTORE PUSH1 0x20 DUP2 SWAP1 MSTORE PUSH1 0x40 SWAP1 KECCAK256 SLOAD SWAP1 JUMP JUMPDEST PUSH2 0x1CB PUSH2 0x3E9 JUMP JUMPDEST PUSH1 0x5 SLOAD PUSH1 0x1 PUSH1 0x1 PUSH1 0xA0 SHL SUB AND PUSH2 0x1F6 JUMP JUMPDEST PUSH2 0x12E PUSH2 0x3FD JUMP JUMPDEST PUSH2 0x1CB PUSH2 0x266 CALLDATASIZE PUSH1 0x4 PUSH2 0xE35 JUMP JUMPDEST PUSH2 0x40C JUMP JUMPDEST PUSH2 0x157 PUSH2 0x279 CALLDATASIZE PUSH1 0x4 PUSH2 0xE35 JUMP JUMPDEST PUSH2 0x481 JUMP JUMPDEST PUSH2 0x1CB PUSH2 0x28C CALLDATASIZE PUSH1 0x4 PUSH2 0xED7 JUMP JUMPDEST PUSH2 0x48F JUMP JUMPDEST PUSH2 0x170 PUSH2 0x29F CALLDATASIZE PUSH1 0x4 PUSH2 0xF1B JUMP JUMPDEST PUSH1 0x1 PUSH1 0x1 PUSH1 0xA0 SHL SUB SWAP2 DUP3 AND PUSH1 0x0 SWAP1 DUP2 MSTORE PUSH1 0x1 PUSH1 0x20 SWAP1 DUP2 MSTORE PUSH1 0x40 DUP1 DUP4 KECCAK256 SWAP4 SWAP1 SWAP5 AND DUP3 MSTORE SWAP2 SWAP1 SWAP2 MSTORE KECCAK256 SLOAD SWAP1 JUMP JUMPDEST PUSH2 0x1CB PUSH2 0x2D8 CALLDATASIZE PUSH1 0x4 PUSH2 0xEB5 JUMP JUMPDEST PUSH2 0x65C JUMP JUMPDEST PUSH2 0x1CB PUSH2 0x2EB CALLDATASIZE PUSH1 0x4 PUSH2 0xF4E JUMP JUMPDEST PUSH2 0x670 JUMP JUMPDEST PUSH2 0x1CB PUSH2 0x2FE CALLDATASIZE PUSH1 0x4 PUSH2 0xF73 JUMP JUMPDEST PUSH2 0x88E JUMP JUMPDEST PUSH1 0x60 PUSH1 0x3 DUP1 SLOAD PUSH2 0x312 SWAP1 PUSH2 0xF96 JUMP JUMPDEST DUP1 PUSH1 0x1F ADD PUSH1 0x20 DUP1 SWAP2 DIV MUL PUSH1 0x20 ADD PUSH1 0x40 MLOAD SWAP1 DUP2 ADD PUSH1 0x40 MSTORE DUP1 SWAP3 SWAP2 SWAP1 DUP2 DUP2 MSTORE PUSH1 0x20 ADD DUP3 DUP1 SLOAD PUSH2 0x33E SWAP1 PUSH2 0xF96 JUMP JUMPDEST DUP1 ISZERO PUSH2 0x38B JUMPI DUP1 PUSH1 0x1F LT PUSH2 0x360 JUMPI PUSH2 0x100 DUP1 DUP4 SLOAD DIV MUL DUP4 MSTORE SWAP2 PUSH1 0x20 ADD SWAP2 PUSH2 0x38B JUMP JUMPDEST DUP3 ADD SWAP2 SWAP1 PUSH1 0x0 MSTORE PUSH1 0x20 PUSH1 0x0 KECCAK256 SWAP1 JUMPDEST DUP2 SLOAD DUP2 MSTORE SWAP1 PUSH1 0x1 ADD SWAP1 PUSH1 0x20 ADD DUP1 DUP4 GT PUSH2 0x36E JUMPI DUP3 SWAP1 SUB PUSH1 0x1F AND DUP3 ADD SWAP2 JUMPDEST POP POP POP POP POP SWAP1 POP SWAP1 JUMP JUMPDEST PUSH1 0x0 CALLER PUSH2 0x3A3 DUP2 DUP6 DUP6 PUSH2 0x9B6 JUMP JUMPDEST PUSH1 0x1 SWAP2 POP POP JUMPDEST SWAP3 SWAP2 POP POP JUMP JUMPDEST PUSH1 0x0 CALLER PUSH2 0x3BD DUP6 DUP3 DUP6 PUSH2 0x9C8 JUMP JUMPDEST PUSH2 0x3C8 DUP6 DUP6 DUP6 PUSH2 0xA47 JUMP JUMPDEST POP PUSH1 0x1 SWAP5 SWAP4 POP POP POP POP JUMP JUMPDEST PUSH2 0x3DB PUSH2 0xAA6 JUMP JUMPDEST PUSH2 0x3E5 DUP3 DUP3 PUSH2 0xAD3 JUMP JUMPDEST POP POP JUMP JUMPDEST PUSH2 0x3F1 PUSH2 0xAA6 JUMP JUMPDEST PUSH2 0x3FB PUSH1 0x0 PUSH2 0xB09 JUMP JUMPDEST JUMP JUMPDEST PUSH1 0x60 PUSH1 0x4 DUP1 SLOAD PUSH2 0x312 SWAP1 PUSH2 0xF96 JUMP JUMPDEST CALLER PUSH1 0x1 PUSH1 0x1 PUSH1 0xA0 SHL SUB DUP4 AND EQ DUP1 PUSH2 0x42D JUMPI POP PUSH1 0x5 SLOAD PUSH1 0x1 PUSH1 0x1 PUSH1 0xA0 SHL SUB AND CALLER EQ JUMPDEST PUSH2 0x477 JUMPI PUSH1 0x40 MLOAD PUSH3 0x461BCD PUSH1 0xE5 SHL DUP2 MSTORE PUSH1 0x20 PUSH1 0x4 DUP3 ADD MSTORE PUSH1 0x16 PUSH1 0x24 DUP3 ADD MSTORE PUSH22 0x2737BA1030BABA3437B934BD32B2103A3790313AB937 PUSH1 0x51 SHL PUSH1 0x44 DUP3 ADD MSTORE PUSH1 0x64 ADD JUMPDEST PUSH1 0x40 MLOAD DUP1 SWAP2 SUB SWAP1 REVERT JUMPDEST PUSH2 0x3E5 DUP3 DUP3 PUSH2 0xB5B JUMP JUMPDEST PUSH1 0x0 CALLER PUSH2 0x3A3 DUP2 DUP6 DUP6 PUSH2 0xA47 JUMP JUMPDEST PUSH2 0x497 PUSH2 0xAA6 JUMP JUMPDEST PUSH2 0x1B58 DUP5 SUB PUSH2 0x4E8 JUMPI PUSH1 0x40 MLOAD PUSH3 0x461BCD PUSH1 0xE5 SHL DUP2 MSTORE PUSH1 0x20 PUSH1 0x4 DUP3 ADD MSTORE PUSH1 0x1E PUSH1 0x24 DUP3 ADD MSTORE PUSH32 0x43616E6E6F7420726563656976652066726F6D2073616D6520636861696E0000 PUSH1 0x44 DUP3 ADD MSTORE PUSH1 0x64 ADD PUSH2 0x46E JUMP JUMPDEST PUSH1 0x0 DUP5 DUP2 MSTORE PUSH1 0x6 PUSH1 0x20 MSTORE PUSH1 0x40 SWAP1 KECCAK256 SLOAD PUSH1 0x1 PUSH1 0x1 PUSH1 0xA0 SHL SUB AND PUSH2 0x55A JUMPI PUSH1 0x40 MLOAD PUSH3 0x461BCD PUSH1 0xE5 SHL DUP2 MSTORE PUSH1 0x20 PUSH1 0x4 DUP3 ADD MSTORE PUSH1 0x25 PUSH1 0x24 DUP3 ADD MSTORE PUSH32 0x4E6F20636F6E6E656374656420636F6E7472616374206F6E20736F7572636520 PUSH1 0x44 DUP3 ADD MSTORE PUSH5 0x31B430B4B7 PUSH1 0xD9 SHL PUSH1 0x64 DUP3 ADD MSTORE PUSH1 0x84 ADD PUSH2 0x46E JUMP JUMPDEST PUSH1 0x1 PUSH1 0x1 PUSH1 0xA0 SHL SUB DUP3 AND PUSH2 0x5AC JUMPI PUSH1 0x40 MLOAD PUSH3 0x461BCD PUSH1 0xE5 SHL DUP2 MSTORE PUSH1 0x20 PUSH1 0x4 DUP3 ADD MSTORE PUSH1 0x19 PUSH1 0x24 DUP3 ADD MSTORE PUSH25 0x496E76616C696420726563697069656E742061646472657373 PUSH1 0x38 SHL PUSH1 0x44 DUP3 ADD MSTORE PUSH1 0x64 ADD PUSH2 0x46E JUMP JUMPDEST PUSH1 0x0 DUP2 GT PUSH2 0x5FC JUMPI PUSH1 0x40 MLOAD PUSH3 0x461BCD PUSH1 0xE5 SHL DUP2 MSTORE PUSH1 0x20 PUSH1 0x4 DUP3 ADD DUP2 SWAP1 MSTORE PUSH1 0x24 DUP3 ADD MSTORE PUSH32 0x416D6F756E74206D7573742062652067726561746572207468616E207A65726F PUSH1 0x44 DUP3 ADD MSTORE PUSH1 0x64 ADD PUSH2 0x46E JUMP JUMPDEST PUSH2 0x606 DUP3 DUP3 PUSH2 0xAD3 JUMP JUMPDEST PUSH1 0x40 DUP1 MLOAD DUP6 DUP2 MSTORE PUSH1 0x1 PUSH1 0x1 PUSH1 0xA0 SHL SUB DUP6 DUP2 AND PUSH1 0x20 DUP4 ADD MSTORE DUP5 AND DUP2 DUP4 ADD MSTORE PUSH1 0x60 DUP2 ADD DUP4 SWAP1 MSTORE SWAP1 MLOAD PUSH32 0x94EA98DE90518192983446DF327B4BBA637838A5DC22ACEA10AA085EDB4CA082 SWAP2 DUP2 SWAP1 SUB PUSH1 0x80 ADD SWAP1 LOG1 POP POP POP POP JUMP JUMPDEST PUSH2 0x664 PUSH2 0xAA6 JUMP JUMPDEST PUSH2 0x66D DUP2 PUSH2 0xB91 JUMP JUMPDEST POP JUMP JUMPDEST PUSH2 0x1B58 DUP4 SUB PUSH2 0x6C1 JUMPI PUSH1 0x40 MLOAD PUSH3 0x461BCD PUSH1 0xE5 SHL DUP2 MSTORE PUSH1 0x20 PUSH1 0x4 DUP3 ADD MSTORE PUSH1 0x1D PUSH1 0x24 DUP3 ADD MSTORE PUSH32 0x43616E6E6F74207472616E7366657220746F2073616D6520636861696E000000 PUSH1 0x44 DUP3 ADD MSTORE PUSH1 0x64 ADD PUSH2 0x46E JUMP JUMPDEST PUSH1 0x0 DUP4 DUP2 MSTORE PUSH1 0x6 PUSH1 0x20 MSTORE PUSH1 0x40 SWAP1 KECCAK256 SLOAD PUSH1 0x1 PUSH1 0x1 PUSH1 0xA0 SHL SUB AND PUSH2 0x738 JUMPI PUSH1 0x40 MLOAD PUSH3 0x461BCD PUSH1 0xE5 SHL DUP2 MSTORE PUSH1 0x20 PUSH1 0x4 DUP3 ADD MSTORE PUSH1 0x2A PUSH1 0x24 DUP3 ADD MSTORE PUSH32 0x4E6F20636F6E6E656374656420636F6E7472616374206F6E2064657374696E61 PUSH1 0x44 DUP3 ADD MSTORE PUSH10 0x3A34B7B71031B430B4B7 PUSH1 0xB1 SHL PUSH1 0x64 DUP3 ADD MSTORE PUSH1 0x84 ADD PUSH2 0x46E JUMP JUMPDEST PUSH1 0x1 PUSH1 0x1 PUSH1 0xA0 SHL SUB DUP3 AND PUSH2 0x78A JUMPI PUSH1 0x40 MLOAD PUSH3 0x461BCD PUSH1 0xE5 SHL DUP2 MSTORE PUSH1 0x20 PUSH1 0x4 DUP3 ADD MSTORE PUSH1 0x19 PUSH1 0x24 DUP3 ADD MSTORE PUSH25 0x496E76616C696420726563697069656E742061646472657373 PUSH1 0x38 SHL PUSH1 0x44 DUP3 ADD MSTORE PUSH1 0x64 ADD PUSH2 0x46E JUMP JUMPDEST PUSH1 0x0 DUP2 GT PUSH2 0x7DA JUMPI PUSH1 0x40 MLOAD PUSH3 0x461BCD PUSH1 0xE5 SHL DUP2 MSTORE PUSH1 0x20 PUSH1 0x4 DUP3 ADD DUP2 SWAP1 MSTORE PUSH1 0x24 DUP3 ADD MSTORE PUSH32 0x416D6F756E74206D7573742062652067726561746572207468616E207A65726F PUSH1 0x44 DUP3 ADD MSTORE PUSH1 0x64 ADD PUSH2 0x46E JUMP JUMPDEST CALLER PUSH1 0x0 SWAP1 DUP2 MSTORE PUSH1 0x20 DUP2 SWAP1 MSTORE PUSH1 0x40 SWAP1 KECCAK256 SLOAD DUP2 GT ISZERO PUSH2 0x830 JUMPI PUSH1 0x40 MLOAD PUSH3 0x461BCD PUSH1 0xE5 SHL DUP2 MSTORE PUSH1 0x20 PUSH1 0x4 DUP3 ADD MSTORE PUSH1 0x14 PUSH1 0x24 DUP3 ADD MSTORE PUSH20 0x496E73756666696369656E742062616C616E6365 PUSH1 0x60 SHL PUSH1 0x44 DUP3 ADD MSTORE PUSH1 0x64 ADD PUSH2 0x46E JUMP JUMPDEST PUSH2 0x83A CALLER DUP3 PUSH2 0xB5B JUMP JUMPDEST PUSH1 0x40 DUP1 MLOAD CALLER DUP2 MSTORE PUSH1 0x20 DUP2 ADD DUP6 SWAP1 MSTORE PUSH1 0x1 PUSH1 0x1 PUSH1 0xA0 SHL SUB DUP5 AND DUP2 DUP4 ADD MSTORE PUSH1 0x60 DUP2 ADD DUP4 SWAP1 MSTORE SWAP1 MLOAD PUSH32 0x50963A9A1E57449F5CE66906EC00C0399A28D5C46F25D2D0D266A42CE6192137 SWAP2 DUP2 SWAP1 SUB PUSH1 0x80 ADD SWAP1 LOG1 POP POP POP JUMP JUMPDEST PUSH2 0x896 PUSH2 0xAA6 JUMP JUMPDEST PUSH2 0x1B58 DUP3 SUB PUSH2 0x8FA JUMPI PUSH1 0x40 MLOAD PUSH3 0x461BCD PUSH1 0xE5 SHL DUP2 MSTORE PUSH1 0x20 PUSH1 0x4 DUP3 ADD MSTORE PUSH1 0x2A PUSH1 0x24 DUP3 ADD MSTORE PUSH32 0x43616E6E6F742073657420636F6E6E656374656420636F6E7472616374206F6E PUSH1 0x44 DUP3 ADD MSTORE PUSH10 0x102D32BA30A1B430B4B7 PUSH1 0xB1 SHL PUSH1 0x64 DUP3 ADD MSTORE PUSH1 0x84 ADD PUSH2 0x46E JUMP JUMPDEST PUSH1 0x1 PUSH1 0x1 PUSH1 0xA0 SHL SUB DUP2 AND PUSH2 0x950 JUMPI PUSH1 0x40 MLOAD PUSH3 0x461BCD PUSH1 0xE5 SHL DUP2 MSTORE PUSH1 0x20 PUSH1 0x4 DUP3 ADD MSTORE PUSH1 0x18 PUSH1 0x24 DUP3 ADD MSTORE PUSH32 0x496E76616C696420636F6E747261637420616464726573730000000000000000 PUSH1 0x44 DUP3 ADD MSTORE PUSH1 0x64 ADD PUSH2 0x46E JUMP JUMPDEST PUSH1 0x0 DUP3 DUP2 MSTORE PUSH1 0x6 PUSH1 0x20 SWAP1 DUP2 MSTORE PUSH1 0x40 SWAP2 DUP3 SWAP1 KECCAK256 DUP1 SLOAD PUSH1 0x1 PUSH1 0x1 PUSH1 0xA0 SHL SUB NOT AND PUSH1 0x1 PUSH1 0x1 PUSH1 0xA0 SHL SUB DUP6 AND SWAP1 DUP2 OR SWAP1 SWAP2 SSTORE DUP3 MLOAD DUP6 DUP2 MSTORE SWAP2 DUP3 ADD MSTORE PUSH32 0x2FC33CB743AB169A721A7372C5A70BCFB722F81C08B5CAC6C993F2E6D3E82E9D SWAP2 ADD PUSH1 0x40 MLOAD DUP1 SWAP2 SUB SWAP1 LOG1 POP POP JUMP JUMPDEST PUSH2 0x9C3 DUP4 DUP4 DUP4 PUSH1 0x1 PUSH2 0xBCC JUMP JUMPDEST POP POP POP JUMP JUMPDEST PUSH1 0x1 PUSH1 0x1 PUSH1 0xA0 SHL SUB DUP4 DUP2 AND PUSH1 0x0 SWAP1 DUP2 MSTORE PUSH1 0x1 PUSH1 0x20 SWAP1 DUP2 MSTORE PUSH1 0x40 DUP1 DUP4 KECCAK256 SWAP4 DUP7 AND DUP4 MSTORE SWAP3 SWAP1 MSTORE KECCAK256 SLOAD PUSH1 0x0 NOT DUP2 LT ISZERO PUSH2 0xA41 JUMPI DUP2 DUP2 LT ISZERO PUSH2 0xA32 JUMPI PUSH1 0x40 MLOAD PUSH4 0x7DC7A0D9 PUSH1 0xE1 SHL DUP2 MSTORE PUSH1 0x1 PUSH1 0x1 PUSH1 0xA0 SHL SUB DUP5 AND PUSH1 0x4 DUP3 ADD MSTORE PUSH1 0x24 DUP2 ADD DUP3 SWAP1 MSTORE PUSH1 0x44 DUP2 ADD DUP4 SWAP1 MSTORE PUSH1 0x64 ADD PUSH2 0x46E JUMP JUMPDEST PUSH2 0xA41 DUP5 DUP5 DUP5 DUP5 SUB PUSH1 0x0 PUSH2 0xBCC JUMP JUMPDEST POP POP POP POP JUMP JUMPDEST PUSH1 0x1 PUSH1 0x1 PUSH1 0xA0 SHL SUB DUP4 AND PUSH2 0xA71 JUMPI PUSH1 0x40 MLOAD PUSH4 0x4B637E8F PUSH1 0xE1 SHL DUP2 MSTORE PUSH1 0x0 PUSH1 0x4 DUP3 ADD MSTORE PUSH1 0x24 ADD PUSH2 0x46E JUMP JUMPDEST PUSH1 0x1 PUSH1 0x1 PUSH1 0xA0 SHL SUB DUP3 AND PUSH2 0xA9B JUMPI PUSH1 0x40 MLOAD PUSH4 0xEC442F05 PUSH1 0xE0 SHL DUP2 MSTORE PUSH1 0x0 PUSH1 0x4 DUP3 ADD MSTORE PUSH1 0x24 ADD PUSH2 0x46E JUMP JUMPDEST PUSH2 0x9C3 DUP4 DUP4 DUP4 PUSH2 0xCA1 JUMP JUMPDEST PUSH1 0x5 SLOAD PUSH1 0x1 PUSH1 0x1 PUSH1 0xA0 SHL SUB AND CALLER EQ PUSH2 0x3FB JUMPI PUSH1 0x40 MLOAD PUSH4 0x118CDAA7 PUSH1 0xE0 SHL DUP2 MSTORE CALLER PUSH1 0x4 DUP3 ADD MSTORE PUSH1 0x24 ADD PUSH2 0x46E JUMP JUMPDEST PUSH1 0x1 PUSH1 0x1 PUSH1 0xA0 SHL SUB DUP3 AND PUSH2 0xAFD JUMPI PUSH1 0x40 MLOAD PUSH4 0xEC442F05 PUSH1 0xE0 SHL DUP2 MSTORE PUSH1 0x0 PUSH1 0x4 DUP3 ADD MSTORE PUSH1 0x24 ADD PUSH2 0x46E JUMP JUMPDEST PUSH2 0x3E5 PUSH1 0x0 DUP4 DUP4 PUSH2 0xCA1 JUMP JUMPDEST PUSH1 0x5 DUP1 SLOAD PUSH1 0x1 PUSH1 0x1 PUSH1 0xA0 SHL SUB DUP4 DUP2 AND PUSH1 0x1 PUSH1 0x1 PUSH1 0xA0 SHL SUB NOT DUP4 AND DUP2 OR SWAP1 SWAP4 SSTORE PUSH1 0x40 MLOAD SWAP2 AND SWAP2 SWAP1 DUP3 SWAP1 PUSH32 0x8BE0079C531659141344CD1FD0A4F28419497F9722A3DAAFE3B4186F6B6457E0 SWAP1 PUSH1 0x0 SWAP1 LOG3 POP POP JUMP JUMPDEST PUSH1 0x1 PUSH1 0x1 PUSH1 0xA0 SHL SUB DUP3 AND PUSH2 0xB85 JUMPI PUSH1 0x40 MLOAD PUSH4 0x4B637E8F PUSH1 0xE1 SHL DUP2 MSTORE PUSH1 0x0 PUSH1 0x4 DUP3 ADD MSTORE PUSH1 0x24 ADD PUSH2 0x46E JUMP JUMPDEST PUSH2 0x3E5 DUP3 PUSH1 0x0 DUP4 PUSH2 0xCA1 JUMP JUMPDEST PUSH2 0xB99 PUSH2 0xAA6 JUMP JUMPDEST PUSH1 0x1 PUSH1 0x1 PUSH1 0xA0 SHL SUB DUP2 AND PUSH2 0xBC3 JUMPI PUSH1 0x40 MLOAD PUSH4 0x1E4FBDF7 PUSH1 0xE0 SHL DUP2 MSTORE PUSH1 0x0 PUSH1 0x4 DUP3 ADD MSTORE PUSH1 0x24 ADD PUSH2 0x46E JUMP JUMPDEST PUSH2 0x66D DUP2 PUSH2 0xB09 JUMP JUMPDEST PUSH1 0x1 PUSH1 0x1 PUSH1 0xA0 SHL SUB DUP5 AND PUSH2 0xBF6 JUMPI PUSH1 0x40 MLOAD PUSH4 0xE602DF05 PUSH1 0xE0 SHL DUP2 MSTORE PUSH1 0x0 PUSH1 0x4 DUP3 ADD MSTORE PUSH1 0x24 ADD PUSH2 0x46E JUMP JUMPDEST PUSH1 0x1 PUSH1 0x1 PUSH1 0xA0 SHL SUB DUP4 AND PUSH2 0xC20 JUMPI PUSH1 0x40 MLOAD PUSH4 0x4A1406B1 PUSH1 0xE1 SHL DUP2 MSTORE PUSH1 0x0 PUSH1 0x4 DUP3 ADD MSTORE PUSH1 0x24 ADD PUSH2 0x46E JUMP JUMPDEST PUSH1 0x1 PUSH1 0x1 PUSH1 0xA0 SHL SUB DUP1 DUP6 AND PUSH1 0x0 SWAP1 DUP2 MSTORE PUSH1 0x1 PUSH1 0x20 SWAP1 DUP2 MSTORE PUSH1 0x40 DUP1 DUP4 KECCAK256 SWAP4 DUP8 AND DUP4 MSTORE SWAP3 SWAP1 MSTORE KECCAK256 DUP3 SWAP1 SSTORE DUP1 ISZERO PUSH2 0xA41 JUMPI DUP3 PUSH1 0x1 PUSH1 0x1 PUSH1 0xA0 SHL SUB AND DUP5 PUSH1 0x1 PUSH1 0x1 PUSH1 0xA0 SHL SUB AND PUSH32 0x8C5BE1E5EBEC7D5BD14F71427D1E84F3DD0314C0F7B2291E5B200AC8C7C3B925 DUP5 PUSH1 0x40 MLOAD PUSH2 0xC93 SWAP2 DUP2 MSTORE PUSH1 0x20 ADD SWAP1 JUMP JUMPDEST PUSH1 0x40 MLOAD DUP1 SWAP2 SUB SWAP1 LOG3 POP POP POP POP JUMP JUMPDEST PUSH1 0x1 PUSH1 0x1 PUSH1 0xA0 SHL SUB DUP4 AND PUSH2 0xCCC JUMPI DUP1 PUSH1 0x2 PUSH1 0x0 DUP3 DUP3 SLOAD PUSH2 0xCC1 SWAP2 SWAP1 PUSH2 0xFD0 JUMP JUMPDEST SWAP1 SWAP2 SSTORE POP PUSH2 0xD3E SWAP1 POP JUMP JUMPDEST PUSH1 0x1 PUSH1 0x1 PUSH1 0xA0 SHL SUB DUP4 AND PUSH1 0x0 SWAP1 DUP2 MSTORE PUSH1 0x20 DUP2 SWAP1 MSTORE PUSH1 0x40 SWAP1 KECCAK256 SLOAD DUP2 DUP2 LT ISZERO PUSH2 0xD1F JUMPI PUSH1 0x40 MLOAD PUSH4 0x391434E3 PUSH1 0xE2 SHL DUP2 MSTORE PUSH1 0x1 PUSH1 0x1 PUSH1 0xA0 SHL SUB DUP6 AND PUSH1 0x4 DUP3 ADD MSTORE PUSH1 0x24 DUP2 ADD DUP3 SWAP1 MSTORE PUSH1 0x44 DUP2 ADD DUP4 SWAP1 MSTORE PUSH1 0x64 ADD PUSH2 0x46E JUMP JUMPDEST PUSH1 0x1 PUSH1 0x1 PUSH1 0xA0 SHL SUB DUP5 AND PUSH1 0x0 SWAP1 DUP2 MSTORE PUSH1 0x20 DUP2 SWAP1 MSTORE PUSH1 0x40 SWAP1 KECCAK256 SWAP1 DUP3 SWAP1 SUB SWAP1 SSTORE JUMPDEST PUSH1 0x1 PUSH1 0x1 PUSH1 0xA0 SHL SUB DUP3 AND PUSH2 0xD5A JUMPI PUSH1 0x2 DUP1 SLOAD DUP3 SWAP1 SUB SWAP1 SSTORE PUSH2 0xD79 JUMP JUMPDEST PUSH1 0x1 PUSH1 0x1 PUSH1 0xA0 SHL SUB DUP3 AND PUSH1 0x0 SWAP1 DUP2 MSTORE PUSH1 0x20 DUP2 SWAP1 MSTORE PUSH1 0x40 SWAP1 KECCAK256 DUP1 SLOAD DUP3 ADD SWAP1 SSTORE JUMPDEST DUP2 PUSH1 0x1 PUSH1 0x1 PUSH1 0xA0 SHL SUB AND DUP4 PUSH1 0x1 PUSH1 0x1 PUSH1 0xA0 SHL SUB AND PUSH32 0xDDF252AD1BE2C89B69C2B068FC378DAA952BA7F163C4A11628F55A4DF523B3EF DUP4 PUSH1 0x40 MLOAD PUSH2 0xDBE SWAP2 DUP2 MSTORE PUSH1 0x20 ADD SWAP1 JUMP JUMPDEST PUSH1 0x40 MLOAD DUP1 SWAP2 SUB SWAP1 LOG3 POP POP POP JUMP JUMPDEST PUSH1 0x20 DUP2 MSTORE PUSH1 0x0 DUP3 MLOAD DUP1 PUSH1 0x20 DUP5 ADD MSTORE PUSH1 0x0 JUMPDEST DUP2 DUP2 LT ISZERO PUSH2 0xDF9 JUMPI PUSH1 0x20 DUP2 DUP7 ADD DUP2 ADD MLOAD PUSH1 0x40 DUP7 DUP5 ADD ADD MSTORE ADD PUSH2 0xDDC JUMP JUMPDEST POP PUSH1 0x0 PUSH1 0x40 DUP3 DUP6 ADD ADD MSTORE PUSH1 0x40 PUSH1 0x1F NOT PUSH1 0x1F DUP4 ADD AND DUP5 ADD ADD SWAP2 POP POP SWAP3 SWAP2 POP POP JUMP JUMPDEST DUP1 CALLDATALOAD PUSH1 0x1 PUSH1 0x1 PUSH1 0xA0 SHL SUB DUP2 AND DUP2 EQ PUSH2 0xE30 JUMPI PUSH1 0x0 DUP1 REVERT JUMPDEST SWAP2 SWAP1 POP JUMP JUMPDEST PUSH1 0x0 DUP1 PUSH1 0x40 DUP4 DUP6 SUB SLT ISZERO PUSH2 0xE48 JUMPI PUSH1 0x0 DUP1 REVERT JUMPDEST PUSH2 0xE51 DUP4 PUSH2 0xE19 JUMP JUMPDEST SWAP5 PUSH1 0x20 SWAP4 SWAP1 SWAP4 ADD CALLDATALOAD SWAP4 POP POP POP JUMP JUMPDEST PUSH1 0x0 DUP1 PUSH1 0x0 PUSH1 0x60 DUP5 DUP7 SUB SLT ISZERO PUSH2 0xE74 JUMPI PUSH1 0x0 DUP1 REVERT JUMPDEST PUSH2 0xE7D DUP5 PUSH2 0xE19 JUMP JUMPDEST SWAP3 POP PUSH2 0xE8B PUSH1 0x20 DUP6 ADD PUSH2 0xE19 JUMP JUMPDEST SWAP3 SWAP6 SWAP3 SWAP5 POP POP POP PUSH1 0x40 SWAP2 SWAP1 SWAP2 ADD CALLDATALOAD SWAP1 JUMP JUMPDEST PUSH1 0x0 PUSH1 0x20 DUP3 DUP5 SUB SLT ISZERO PUSH2 0xEAE JUMPI PUSH1 0x0 DUP1 REVERT JUMPDEST POP CALLDATALOAD SWAP2 SWAP1 POP JUMP JUMPDEST PUSH1 0x0 PUSH1 0x20 DUP3 DUP5 SUB SLT ISZERO PUSH2 0xEC7 JUMPI PUSH1 0x0 DUP1 REVERT JUMPDEST PUSH2 0xED0 DUP3 PUSH2 0xE19 JUMP JUMPDEST SWAP4 SWAP3 POP POP POP JUMP JUMPDEST PUSH1 0x0 DUP1 PUSH1 0x0 DUP1 PUSH1 0x80 DUP6 DUP8 SUB SLT ISZERO PUSH2 0xEED JUMPI PUSH1 0x0 DUP1 REVERT JUMPDEST DUP5 CALLDATALOAD SWAP4 POP PUSH2 0xEFD PUSH1 0x20 DUP7 ADD PUSH2 0xE19 JUMP JUMPDEST SWAP3 POP PUSH2 0xF0B PUSH1 0x40 DUP7 ADD PUSH2 0xE19 JUMP JUMPDEST SWAP4 SWAP7 SWAP3 SWAP6 POP SWAP3 SWAP4 PUSH1 0x60 ADD CALLDATALOAD SWAP3 POP POP JUMP JUMPDEST PUSH1 0x0 DUP1 PUSH1 0x40 DUP4 DUP6 SUB SLT ISZERO PUSH2 0xF2E JUMPI PUSH1 0x0 DUP1 REVERT JUMPDEST PUSH2 0xF37 DUP4 PUSH2 0xE19 JUMP JUMPDEST SWAP2 POP PUSH2 0xF45 PUSH1 0x20 DUP5 ADD PUSH2 0xE19 JUMP JUMPDEST SWAP1 POP SWAP3 POP SWAP3 SWAP1 POP JUMP JUMPDEST PUSH1 0x0 DUP1 PUSH1 0x0 PUSH1 0x60 DUP5 DUP7 SUB SLT ISZERO PUSH2 0xF63 JUMPI PUSH1 0x0 DUP1 REVERT JUMPDEST DUP4 CALLDATALOAD SWAP3 POP PUSH2 0xE8B PUSH1 0x20 DUP6 ADD PUSH2 0xE19 JUMP JUMPDEST PUSH1 0x0 DUP1 PUSH1 0x40 DUP4 DUP6 SUB SLT ISZERO PUSH2 0xF86 JUMPI PUSH1 0x0 DUP1 REVERT JUMPDEST DUP3 CALLDATALOAD SWAP2 POP PUSH2 0xF45 PUSH1 0x20 DUP5 ADD PUSH2 0xE19 JUMP JUMPDEST PUSH1 0x1 DUP2 DUP2 SHR SWAP1 DUP3 AND DUP1 PUSH2 0xFAA JUMPI PUSH1 0x7F DUP3 AND SWAP2 POP JUMPDEST PUSH1 0x20 DUP3 LT DUP2 SUB PUSH2 0xFCA JUMPI PUSH4 0x4E487B71 PUSH1 0xE0 SHL PUSH1 0x0 MSTORE PUSH1 0x22 PUSH1 0x4 MSTORE PUSH1 0x24 PUSH1 0x0 REVERT JUMPDEST POP SWAP2 SWAP1 POP JUMP JUMPDEST DUP1 DUP3 ADD DUP1 DUP3 GT ISZERO PUSH2 0x3A9 JUMPI PUSH4 0x4E487B71 PUSH1 0xE0 SHL PUSH1 0x0 MSTORE PUSH1 0x11 PUSH1 0x4 MSTORE PUSH1 0x24 PUSH1 0x0 REVERT INVALID LOG2 PUSH5 0x6970667358 0x22 SLT KECCAK256 PUSH11 0xE570FDA10FFD2C25C859CE 0xCF PUSH11 0x33BC43250E5FBF66F82C8A 0x4F MOD GASPRICE SWAP8 PUSH25 0xA20864736F6C634300081A0033000000000000000000000000 "},"methodIdentifiers":{"ZETACHAIN_ID()":"15c22a29","allowance(address,address)":"dd62ed3e","approve(address,uint256)":"095ea7b3","balanceOf(address)":"70a08231","burn(address,uint256)":"9dc29fac","connectedContracts(uint256)":"6d91bfcc","crossChainTransfer(uint256,address,uint256)":"f6e7393c","decimals()":"313ce567","mint(address,uint256)":"40c10f19","name()":"06fdde03","owner()":"8da5cb5b","receiveCrossChainTransfer(uint256,address,address,uint256)":"b590659f","renounceOwnership()":"715018a6","setConnectedContract(uint256,address)":"f9221ef7","symbol()":"95d89b41","totalSupply()":"18160ddd","transfer(address,uint256)":"a9059cbb","transferFrom(address,address,uint256)":"23b872dd","transferOwnership(address)":"f2fde38b"}}}}}