{
  "_format": "hh-sol-artifact-1",
  "contractName": "ZetaChainUniversalNFT",
  "sourceName": "contracts/ZetaChainUniversalNFT.sol",
  "abi": [
    {
      "inputs": [
        {
          "internalType": "string",
          "name": "name_",
          "type": "string"
        },
        {
          "internalType": "string",
          "name": "symbol_",
          "type": "string"
        },
        {
          "internalType": "string",
          "name": "baseURI_",
          "type": "string"
        },
        {
          "internalType": "uint256",
          "name": "maxSupply_",
          "type": "uint256"
        },
        {
          "internalType": "address",
          "name": "initialOwner",
          "type": "address"
        }
      ],
      "stateMutability": "nonpayable",
      "type": "constructor"
    },
    {
      "inputs": [
        {
          "internalType": "address",
          "name": "sender",
          "type": "address"
        },
        {
          "internalType": "uint256",
          "name": "tokenId",
          "type": "uint256"
        },
        {
          "internalType": "address",
          "name": "owner",
          "type": "address"
        }
      ],
      "name": "ERC721IncorrectOwner",
      "type": "error"
    },
    {
      "inputs": [
        {
          "internalType": "address",
          "name": "operator",
          "type": "address"
        },
        {
          "internalType": "uint256",
          "name": "tokenId",
          "type": "uint256"
        }
      ],
      "name": "ERC721InsufficientApproval",
      "type": "error"
    },
    {
      "inputs": [
        {
          "internalType": "address",
          "name": "approver",
          "type": "address"
        }
      ],
      "name": "ERC721InvalidApprover",
      "type": "error"
    },
    {
      "inputs": [
        {
          "internalType": "address",
          "name": "operator",
          "type": "address"
        }
      ],
      "name": "ERC721InvalidOperator",
      "type": "error"
    },
    {
      "inputs": [
        {
          "internalType": "address",
          "name": "owner",
          "type": "address"
        }
      ],
      "name": "ERC721InvalidOwner",
      "type": "error"
    },
    {
      "inputs": [
        {
          "internalType": "address",
          "name": "receiver",
          "type": "address"
        }
      ],
      "name": "ERC721InvalidReceiver",
      "type": "error"
    },
    {
      "inputs": [
        {
          "internalType": "address",
          "name": "sender",
          "type": "address"
        }
      ],
      "name": "ERC721InvalidSender",
      "type": "error"
    },
    {
      "inputs": [
        {
          "internalType": "uint256",
          "name": "tokenId",
          "type": "uint256"
        }
      ],
      "name": "ERC721NonexistentToken",
      "type": "error"
    },
    {
      "inputs": [
        {
          "internalType": "address",
          "name": "owner",
          "type": "address"
        }
      ],
      "name": "OwnableInvalidOwner",
      "type": "error"
    },
    {
      "inputs": [
        {
          "internalType": "address",
          "name": "account",
          "type": "address"
        }
      ],
      "name": "OwnableUnauthorizedAccount",
      "type": "error"
    },
    {
      "anonymous": false,
      "inputs": [
        {
          "indexed": true,
          "internalType": "address",
          "name": "owner",
          "type": "address"
        },
        {
          "indexed": true,
          "internalType": "address",
          "name": "approved",
          "type": "address"
        },
        {
          "indexed": true,
          "internalType": "uint256",
          "name": "tokenId",
          "type": "uint256"
        }
      ],
      "name": "Approval",
      "type": "event"
    },
    {
      "anonymous": false,
      "inputs": [
        {
          "indexed": true,
          "internalType": "address",
          "name": "owner",
          "type": "address"
        },
        {
          "indexed": true,
          "internalType": "address",
          "name": "operator",
          "type": "address"
        },
        {
          "indexed": false,
          "internalType": "bool",
          "name": "approved",
          "type": "bool"
        }
      ],
      "name": "ApprovalForAll",
      "type": "event"
    },
    {
      "anonymous": false,
      "inputs": [
        {
          "indexed": false,
          "internalType": "uint256",
          "name": "chainId",
          "type": "uint256"
        },
        {
          "indexed": false,
          "internalType": "address",
          "name": "contractAddress",
          "type": "address"
        }
      ],
      "name": "ConnectedContractSet",
      "type": "event"
    },
    {
      "anonymous": false,
      "inputs": [
        {
          "indexed": false,
          "internalType": "uint256",
          "name": "tokenId",
          "type": "uint256"
        },
        {
          "indexed": false,
          "internalType": "uint256",
          "name": "destChainId",
          "type": "uint256"
        },
        {
          "indexed": false,
          "internalType": "address",
          "name": "to",
          "type": "address"
        }
      ],
      "name": "CrossChainTransferInitiated",
      "type": "event"
    },
    {
      "anonymous": false,
      "inputs": [
        {
          "indexed": false,
          "internalType": "uint256",
          "name": "tokenId",
          "type": "uint256"
        },
        {
          "indexed": false,
          "internalType": "uint256",
          "name": "sourceChainId",
          "type": "uint256"
        },
        {
          "indexed": false,
          "internalType": "address",
          "name": "to",
          "type": "address"
        }
      ],
      "name": "CrossChainTransferReceived",
      "type": "event"
    },
    {
      "anonymous": false,
      "inputs": [
        {
          "indexed": true,
          "internalType": "address",
          "name": "previousOwner",
          "type": "address"
        },
        {
          "indexed": true,
          "internalType": "address",
          "name": "newOwner",
          "type": "address"
        }
      ],
      "name": "OwnershipTransferred",
      "type": "event"
    },
    {
      "anonymous": false,
      "inputs": [
        {
          "indexed": true,
          "internalType": "address",
          "name": "from",
          "type": "address"
        },
        {
          "indexed": true,
          "internalType": "address",
          "name": "to",
          "type": "address"
        },
        {
          "indexed": true,
          "internalType": "uint256",
          "name": "tokenId",
          "type": "uint256"
        }
      ],
      "name": "Transfer",
      "type": "event"
    },
    {
      "inputs": [],
      "name": "ZETA_CHAIN_ID",
      "outputs": [
        {
          "internalType": "uint256",
          "name": "",
          "type": "uint256"
        }
      ],
      "stateMutability": "view",
      "type": "function"
    },
    {
      "inputs": [],
      "name": "ZETA_TESTNET_ID",
      "outputs": [
        {
          "internalType": "uint256",
          "name": "",
          "type": "uint256"
        }
      ],
      "stateMutability": "view",
      "type": "function"
    },
    {
      "inputs": [
        {
          "internalType": "address",
          "name": "to",
          "type": "address"
        },
        {
          "internalType": "uint256",
          "name": "tokenId",
          "type": "uint256"
        }
      ],
      "name": "approve",
      "outputs": [],
      "stateMutability": "nonpayable",
      "type": "function"
    },
    {
      "inputs": [
        {
          "internalType": "address",
          "name": "owner",
          "type": "address"
        }
      ],
      "name": "balanceOf",
      "outputs": [
        {
          "internalType": "uint256",
          "name": "",
          "type": "uint256"
        }
      ],
      "stateMutability": "view",
      "type": "function"
    },
    {
      "inputs": [
        {
          "internalType": "uint256",
          "name": "tokenId",
          "type": "uint256"
        }
      ],
      "name": "burn",
      "outputs": [],
      "stateMutability": "nonpayable",
      "type": "function"
    },
    {
      "inputs": [
        {
          "internalType": "uint256",
          "name": "",
          "type": "uint256"
        }
      ],
      "name": "connectedContracts",
      "outputs": [
        {
          "internalType": "address",
          "name": "",
          "type": "address"
        }
      ],
      "stateMutability": "view",
      "type": "function"
    },
    {
      "inputs": [
        {
          "internalType": "uint256",
          "name": "tokenId",
          "type": "uint256"
        },
        {
          "internalType": "uint256",
          "name": "destChainId",
          "type": "uint256"
        },
        {
          "internalType": "address",
          "name": "recipient",
          "type": "address"
        }
      ],
      "name": "crossChainTransfer",
      "outputs": [],
      "stateMutability": "nonpayable",
      "type": "function"
    },
    {
      "inputs": [
        {
          "internalType": "uint256",
          "name": "tokenId",
          "type": "uint256"
        }
      ],
      "name": "getApproved",
      "outputs": [
        {
          "internalType": "address",
          "name": "",
          "type": "address"
        }
      ],
      "stateMutability": "view",
      "type": "function"
    },
    {
      "inputs": [
        {
          "internalType": "address",
          "name": "owner",
          "type": "address"
        },
        {
          "internalType": "address",
          "name": "operator",
          "type": "address"
        }
      ],
      "name": "isApprovedForAll",
      "outputs": [
        {
          "internalType": "bool",
          "name": "",
          "type": "bool"
        }
      ],
      "stateMutability": "view",
      "type": "function"
    },
    {
      "inputs": [],
      "name": "maxSupply",
      "outputs": [
        {
          "internalType": "uint256",
          "name": "",
          "type": "uint256"
        }
      ],
      "stateMutability": "view",
      "type": "function"
    },
    {
      "inputs": [
        {
          "internalType": "address",
          "name": "to",
          "type": "address"
        }
      ],
      "name": "mint",
      "outputs": [
        {
          "internalType": "uint256",
          "name": "",
          "type": "uint256"
        }
      ],
      "stateMutability": "nonpayable",
      "type": "function"
    },
    {
      "inputs": [
        {
          "internalType": "address",
          "name": "to",
          "type": "address"
        },
        {
          "internalType": "uint256",
          "name": "amount",
          "type": "uint256"
        }
      ],
      "name": "mintBatch",
      "outputs": [
        {
          "internalType": "uint256[]",
          "name": "",
          "type": "uint256[]"
        }
      ],
      "stateMutability": "nonpayable",
      "type": "function"
    },
    {
      "inputs": [],
      "name": "name",
      "outputs": [
        {
          "internalType": "string",
          "name": "",
          "type": "string"
        }
      ],
      "stateMutability": "view",
      "type": "function"
    },
    {
      "inputs": [],
      "name": "nextTokenId",
      "outputs": [
        {
          "internalType": "uint256",
          "name": "",
          "type": "uint256"
        }
      ],
      "stateMutability": "view",
      "type": "function"
    },
    {
      "inputs": [],
      "name": "owner",
      "outputs": [
        {
          "internalType": "address",
          "name": "",
          "type": "address"
        }
      ],
      "stateMutability": "view",
      "type": "function"
    },
    {
      "inputs": [
        {
          "internalType": "uint256",
          "name": "tokenId",
          "type": "uint256"
        }
      ],
      "name": "ownerOf",
      "outputs": [
        {
          "internalType": "address",
          "name": "",
          "type": "address"
        }
      ],
      "stateMutability": "view",
      "type": "function"
    },
    {
      "inputs": [
        {
          "internalType": "uint256",
          "name": "tokenId",
          "type": "uint256"
        },
        {
          "internalType": "uint256",
          "name": "sourceChainId",
          "type": "uint256"
        },
        {
          "internalType": "address",
          "name": "recipient",
          "type": "address"
        }
      ],
      "name": "receiveCrossChainTransfer",
      "outputs": [],
      "stateMutability": "nonpayable",
      "type": "function"
    },
    {
      "inputs": [],
      "name": "renounceOwnership",
      "outputs": [],
      "stateMutability": "nonpayable",
      "type": "function"
    },
    {
      "inputs": [
        {
          "internalType": "address",
          "name": "from",
          "type": "address"
        },
        {
          "internalType": "address",
          "name": "to",
          "type": "address"
        },
        {
          "internalType": "uint256",
          "name": "tokenId",
          "type": "uint256"
        }
      ],
      "name": "safeTransferFrom",
      "outputs": [],
      "stateMutability": "nonpayable",
      "type": "function"
    },
    {
      "inputs": [
        {
          "internalType": "address",
          "name": "from",
          "type": "address"
        },
        {
          "internalType": "address",
          "name": "to",
          "type": "address"
        },
        {
          "internalType": "uint256",
          "name": "tokenId",
          "type": "uint256"
        },
        {
          "internalType": "bytes",
          "name": "data",
          "type": "bytes"
        }
      ],
      "name": "safeTransferFrom",
      "outputs": [],
      "stateMutability": "nonpayable",
      "type": "function"
    },
    {
      "inputs": [
        {
          "internalType": "address",
          "name": "operator",
          "type": "address"
        },
        {
          "internalType": "bool",
          "name": "approved",
          "type": "bool"
        }
      ],
      "name": "setApprovalForAll",
      "outputs": [],
      "stateMutability": "nonpayable",
      "type": "function"
    },
    {
      "inputs": [
        {
          "internalType": "string",
          "name": "baseURI_",
          "type": "string"
        }
      ],
      "name": "setBaseURI",
      "outputs": [],
      "stateMutability": "nonpayable",
      "type": "function"
    },
    {
      "inputs": [
        {
          "internalType": "uint256",
          "name": "chainId",
          "type": "uint256"
        },
        {
          "internalType": "address",
          "name": "contractAddress",
          "type": "address"
        }
      ],
      "name": "setConnectedContract",
      "outputs": [],
      "stateMutability": "nonpayable",
      "type": "function"
    },
    {
      "inputs": [
        {
          "internalType": "bytes4",
          "name": "interfaceId",
          "type": "bytes4"
        }
      ],
      "name": "supportsInterface",
      "outputs": [
        {
          "internalType": "bool",
          "name": "",
          "type": "bool"
        }
      ],
      "stateMutability": "view",
      "type": "function"
    },
    {
      "inputs": [],
      "name": "symbol",
      "outputs": [
        {
          "internalType": "string",
          "name": "",
          "type": "string"
        }
      ],
      "stateMutability": "view",
      "type": "function"
    },
    {
      "inputs": [
        {
          "internalType": "uint256",
          "name": "tokenId",
          "type": "uint256"
        }
      ],
      "name": "tokenURI",
      "outputs": [
        {
          "internalType": "string",
          "name": "",
          "type": "string"
        }
      ],
      "stateMutability": "view",
      "type": "function"
    },
    {
      "inputs": [
        {
          "internalType": "address",
          "name": "from",
          "type": "address"
        },
        {
          "internalType": "address",
          "name": "to",
          "type": "address"
        },
        {
          "internalType": "uint256",
          "name": "tokenId",
          "type": "uint256"
        }
      ],
      "name": "transferFrom",
      "outputs": [],
      "stateMutability": "nonpayable",
      "type": "function"
    },
    {
      "inputs": [
        {
          "internalType": "address",
          "name": "newOwner",
          "type": "address"
        }
      ],
      "name": "transferOwnership",
      "outputs": [],
      "stateMutability": "nonpayable",
      "type": "function"
    }
  ],
  "bytecode": "0x6080604052600160095534801561001557600080fd5b50604051611f90380380611f90833981016040819052610034916101ba565b848484848480858560006100488382610305565b5060016100558282610305565b5050506001600160a01b03811661008657604051631e4fbdf760e01b81526000600482015260240160405180910390fd5b61008f816100af565b50600861009c8482610305565b5050600755506103c39650505050505050565b600680546001600160a01b038381166001600160a01b0319831681179093556040519116919082907f8be0079c531659141344cd1fd0a4f28419497f9722a3daafe3b4186f6b6457e090600090a35050565b634e487b7160e01b600052604160045260246000fd5b600082601f83011261012857600080fd5b81516001600160401b0381111561014157610141610101565b604051601f8201601f19908116603f011681016001600160401b038111828210171561016f5761016f610101565b60405281815283820160200185101561018757600080fd5b60005b828110156101a65760208186018101518383018201520161018a565b506000918101602001919091529392505050565b600080600080600060a086880312156101d257600080fd5b85516001600160401b038111156101e857600080fd5b6101f488828901610117565b602088015190965090506001600160401b0381111561021257600080fd5b61021e88828901610117565b604088015190955090506001600160401b0381111561023c57600080fd5b61024888828901610117565b60608801516080890151919550935090506001600160a01b038116811461026e57600080fd5b809150509295509295909350565b600181811c9082168061029057607f821691505b6020821081036102b057634e487b7160e01b600052602260045260246000fd5b50919050565b601f82111561030057806000526020600020601f840160051c810160208510156102dd5750805b601f840160051c820191505b818110156102fd57600081556001016102e9565b50505b505050565b81516001600160401b0381111561031e5761031e610101565b6103328161032c845461027c565b846102b6565b6020601f821160018114610366576000831561034e5750848201515b600019600385901b1c1916600184901b1784556102fd565b600084815260208120601f198516915b828110156103965787850151825560209485019460019092019101610376565b50848210156103b45786840151600019600387901b60f8161c191681555b50505050600190811b01905550565b611bbe806103d26000396000f3fe608060405234801561001057600080fd5b50600436106101c45760003560e01c80636d91bfcc116100f9578063b88d4fde11610097578063d5abeb0111610071578063d5abeb01146103bc578063e985e9c5146103c4578063f2fde38b146103d7578063f9221ef7146103ea57600080fd5b8063b88d4fde1461038d578063c324535f146103a0578063c87b56dd146103a957600080fd5b806375794a3c116100d357806375794a3c146103595780638da5cb5b1461036157806395d89b4114610372578063a22cb4651461037a57600080fd5b80636d91bfcc1461031557806370a082311461033e578063715018a61461035157600080fd5b8063248b71fc1161016657806342966c681161014057806342966c68146102c957806355f804b3146102dc5780636352211e146102ef5780636a6278421461030257600080fd5b8063248b71fc1461028357806332b8ab60146102a357806342842e0e146102b657600080fd5b8063095ea7b3116101a2578063095ea7b31461023157806309f3872e146102465780631a6da60d1461025957806323b872dd1461027057600080fd5b806301ffc9a7146101c957806306fdde03146101f1578063081812fc14610206575b600080fd5b6101dc6101d7366004611599565b6103fd565b60405190151581526020015b60405180910390f35b6101f961044f565b6040516101e89190611606565b610219610214366004611619565b6104e1565b6040516001600160a01b0390911681526020016101e8565b61024461023f366004611647565b61050a565b005b610244610254366004611673565b610519565b610262611b5981565b6040519081526020016101e8565b61024461027e3660046116ac565b6106e1565b610296610291366004611647565b61076c565b6040516101e891906116ed565b6102446102b1366004611673565b610883565b6102446102c43660046116ac565b6109dd565b6102446102d7366004611619565b6109f8565b6102446102ea3660046117c0565b610ab5565b6102196102fd366004611619565b610ac9565b610262610310366004611809565b610ad4565b610219610323366004611619565b600a602052600090815260409020546001600160a01b031681565b61026261034c366004611809565b610b48565b610244610b90565b600954610262565b6006546001600160a01b0316610219565b6101f9610ba4565b610244610388366004611826565b610bb3565b61024461039b366004611864565b610bbe565b610262611b5881565b6101f96103b7366004611619565b610bd6565b600754610262565b6101dc6103d23660046118e4565b610c3e565b6102446103e5366004611809565b610c6c565b6102446103f8366004611912565b610c80565b60006001600160e01b031982166380ac58cd60e01b148061042e57506001600160e01b03198216635b5e139f60e01b145b8061044957506301ffc9a760e01b6001600160e01b03198316145b92915050565b60606000805461045e90611937565b80601f016020809104026020016040519081016040528092919081815260200182805461048a90611937565b80156104d75780601f106104ac576101008083540402835291602001916104d7565b820191906000526020600020905b8154815290600101906020018083116104ba57829003601f168201915b5050505050905090565b60006104ec82610da4565b506000828152600460205260409020546001600160a01b0316610449565b610515828233610ddd565b5050565b610521610dea565b6000828152600a60205260409020546001600160a01b031661058a5760405162461bcd60e51b815260206004820152601a60248201527f536f7572636520636861696e206e6f7420636f6e6e656374656400000000000060448201526064015b60405180910390fd5b6001600160a01b0381166105dc5760405162461bcd60e51b8152602060048201526019602482015278496e76616c696420726563697069656e74206164647265737360381b6044820152606401610581565b6040516331a9108f60e11b8152600481018490523090636352211e90602401602060405180830381865afa925050508015610634575060408051601f3d908101601f1916820190925261063191810190611971565b60015b610694576106428184610e17565b60408051848152602081018490526001600160a01b038316918101919091527f97f13b61473667e1ab8bfd8651ee30e53656624fda2c0bf96c9cf86f613c4857906060015b60405180910390a1505050565b60405162461bcd60e51b815260206004820152601760248201527f546f6b656e20494420616c7265616479206578697374730000000000000000006044820152606401610581565b505050565b6001600160a01b03821661070b57604051633250574960e11b815260006004820152602401610581565b6000610718838333610e31565b9050836001600160a01b0316816001600160a01b031614610766576040516364283d7b60e01b81526001600160a01b0380861660048301526024820184905282166044820152606401610581565b50505050565b6060610776610dea565b60075460018360095461078991906119a4565b61079391906119b7565b11156107e15760405162461bcd60e51b815260206004820152601760248201527f576f756c6420657863656564206d617820737570706c790000000000000000006044820152606401610581565b60008267ffffffffffffffff8111156107fc576107fc611730565b604051908082528060200260200182016040528015610825578160200160208202803683370190505b50905060005b8381101561087b576009805460009182610844836119ca565b9190505590506108548682610e17565b80838381518110610867576108676119e3565b60209081029190910101525060010161082b565b509392505050565b3361088d84610ac9565b6001600160a01b0316146108d55760405162461bcd60e51b815260206004820152600f60248201526e2737ba103a37b5b2b71037bbb732b960891b6044820152606401610581565b6000828152600a60205260409020546001600160a01b03166109395760405162461bcd60e51b815260206004820152601f60248201527f44657374696e6174696f6e20636861696e206e6f7420636f6e6e6563746564006044820152606401610581565b6001600160a01b03811661098b5760405162461bcd60e51b8152602060048201526019602482015278496e76616c696420726563697069656e74206164647265737360381b6044820152606401610581565b61099483610f2a565b60408051848152602081018490526001600160a01b038316918101919091527f6177ea407504239d2e829ef758376046631ecbf2b0647e333eb7d489750f97ff90606001610687565b6106dc83838360405180602001604052806000815250610bbe565b336000610a0483610ac9565b9050806001600160a01b0316826001600160a01b03161480610a3f5750610a2a836104e1565b6001600160a01b0316826001600160a01b0316145b80610a4f5750610a4f8183610c3e565b80610a6757506006546001600160a01b038381169116145b610aac5760405162461bcd60e51b81526020600482015260166024820152752737ba1030baba3437b934bd32b2103a3790313ab93760511b6044820152606401610581565b6106dc83610f2a565b610abd610dea565b60086105158282611a40565b600061044982610da4565b6000610ade610dea565b6007546009541115610b275760405162461bcd60e51b815260206004820152601260248201527113585e081cdd5c1c1b1e481c995858da195960721b6044820152606401610581565b6009805460009182610b38836119ca565b9190505590506104498382610e17565b60006001600160a01b038216610b74576040516322718ad960e21b815260006004820152602401610581565b506001600160a01b031660009081526003602052604090205490565b610b98610dea565b610ba26000610f65565b565b60606001805461045e90611937565b610515338383610fb7565b610bc98484846106e1565b6107663385858585611056565b6060610be182610da4565b506000610bec611181565b90506000815111610c0c5760405180602001604052806000815250610c37565b80610c1684611190565b604051602001610c27929190611aff565b6040516020818303038152906040525b9392505050565b6001600160a01b03918216600090815260056020908152604080832093909416825291909152205460ff1690565b610c74610dea565b610c7d81611223565b50565b610c88610dea565b6001600160a01b038116610cde5760405162461bcd60e51b815260206004820152601860248201527f496e76616c696420636f6e7472616374206164647265737300000000000000006044820152606401610581565b611b588214158015610cf25750611b598214155b610d3e5760405162461bcd60e51b815260206004820152601b60248201527f43616e6e6f7420636f6e6e65637420746f205a657461436861696e00000000006044820152606401610581565b6000828152600a602090815260409182902080546001600160a01b0319166001600160a01b0385169081179091558251858152918201527f2fc33cb743ab169a721a7372c5a70bcfb722f81c08b5cac6c993f2e6d3e82e9d910160405180910390a15050565b6000818152600260205260408120546001600160a01b03168061044957604051637e27328960e01b815260048101849052602401610581565b6106dc838383600161125e565b6006546001600160a01b03163314610ba25760405163118cdaa760e01b8152336004820152602401610581565b610515828260405180602001604052806000815250611364565b6000828152600260205260408120546001600160a01b0390811690831615610e5e57610e5e81848661137c565b6001600160a01b03811615610e9c57610e7b60008560008061125e565b6001600160a01b038116600090815260036020526040902080546000190190555b6001600160a01b03851615610ecb576001600160a01b0385166000908152600360205260409020805460010190555b60008481526002602052604080822080546001600160a01b0319166001600160a01b0389811691821790925591518793918516917fddf252ad1be2c89b69c2b068fc378daa952ba7f163c4a11628f55a4df523b3ef91a4949350505050565b6000610f396000836000610e31565b90506001600160a01b03811661051557604051637e27328960e01b815260048101839052602401610581565b600680546001600160a01b038381166001600160a01b0319831681179093556040519116919082907f8be0079c531659141344cd1fd0a4f28419497f9722a3daafe3b4186f6b6457e090600090a35050565b6001600160a01b038216610fe957604051630b61174360e31b81526001600160a01b0383166004820152602401610581565b6001600160a01b03838116600081815260056020908152604080832094871680845294825291829020805460ff191686151590811790915591519182527f17307eab39ab6107e8899845ad3d59bd9653f200f220920489ca2b5937696c31910160405180910390a3505050565b6001600160a01b0383163b1561117a57604051630a85bd0160e11b81526001600160a01b0384169063150b7a0290611098908890889087908790600401611b2e565b6020604051808303816000875af19250505080156110d3575060408051601f3d908101601f191682019092526110d091810190611b6b565b60015b61113c573d808015611101576040519150601f19603f3d011682016040523d82523d6000602084013e611106565b606091505b50805160000361113457604051633250574960e11b81526001600160a01b0385166004820152602401610581565b805181602001fd5b6001600160e01b03198116630a85bd0160e11b1461117857604051633250574960e11b81526001600160a01b0385166004820152602401610581565b505b5050505050565b60606008805461045e90611937565b6060600061119d836113e0565b600101905060008167ffffffffffffffff8111156111bd576111bd611730565b6040519080825280601f01601f1916602001820160405280156111e7576020820181803683370190505b5090508181016020015b600019016f181899199a1a9b1b9c1cb0b131b232b360811b600a86061a8153600a85049450846111f157509392505050565b61122b610dea565b6001600160a01b03811661125557604051631e4fbdf760e01b815260006004820152602401610581565b610c7d81610f65565b808061127257506001600160a01b03821615155b1561133457600061128284610da4565b90506001600160a01b038316158015906112ae5750826001600160a01b0316816001600160a01b031614155b80156112c157506112bf8184610c3e565b155b156112ea5760405163a9fbf51f60e01b81526001600160a01b0384166004820152602401610581565b81156113325783856001600160a01b0316826001600160a01b03167f8c5be1e5ebec7d5bd14f71427d1e84f3dd0314c0f7b2291e5b200ac8c7c3b92560405160405180910390a45b505b5050600090815260046020526040902080546001600160a01b0319166001600160a01b0392909216919091179055565b61136e83836114b8565b6106dc336000858585611056565b61138783838361151d565b6106dc576001600160a01b0383166113b557604051637e27328960e01b815260048101829052602401610581565b60405163177e802f60e01b81526001600160a01b038316600482015260248101829052604401610581565b60008072184f03e93ff9f4daa797ed6e38ed64bf6a1f0160401b831061141f5772184f03e93ff9f4daa797ed6e38ed64bf6a1f0160401b830492506040015b6d04ee2d6d415b85acef8100000000831061144b576d04ee2d6d415b85acef8100000000830492506020015b662386f26fc10000831061146957662386f26fc10000830492506010015b6305f5e1008310611481576305f5e100830492506008015b612710831061149557612710830492506004015b606483106114a7576064830492506002015b600a83106104495760010192915050565b6001600160a01b0382166114e257604051633250574960e11b815260006004820152602401610581565b60006114f083836000610e31565b90506001600160a01b038116156106dc576040516339e3563760e11b815260006004820152602401610581565b60006001600160a01b0383161580159061157b5750826001600160a01b0316846001600160a01b0316148061155757506115578484610c3e565b8061157b57506000828152600460205260409020546001600160a01b038481169116145b949350505050565b6001600160e01b031981168114610c7d57600080fd5b6000602082840312156115ab57600080fd5b8135610c3781611583565b60005b838110156115d15781810151838201526020016115b9565b50506000910152565b600081518084526115f28160208601602086016115b6565b601f01601f19169290920160200192915050565b602081526000610c3760208301846115da565b60006020828403121561162b57600080fd5b5035919050565b6001600160a01b0381168114610c7d57600080fd5b6000806040838503121561165a57600080fd5b823561166581611632565b946020939093013593505050565b60008060006060848603121561168857600080fd5b833592506020840135915060408401356116a181611632565b809150509250925092565b6000806000606084860312156116c157600080fd5b83356116cc81611632565b925060208401356116dc81611632565b929592945050506040919091013590565b602080825282518282018190526000918401906040840190835b81811015611725578351835260209384019390920191600101611707565b509095945050505050565b634e487b7160e01b600052604160045260246000fd5b60008067ffffffffffffffff84111561176157611761611730565b50604051601f19601f85018116603f0116810181811067ffffffffffffffff8211171561179057611790611730565b6040528381529050808284018510156117a857600080fd5b83836020830137600060208583010152509392505050565b6000602082840312156117d257600080fd5b813567ffffffffffffffff8111156117e957600080fd5b8201601f810184136117fa57600080fd5b61157b84823560208401611746565b60006020828403121561181b57600080fd5b8135610c3781611632565b6000806040838503121561183957600080fd5b823561184481611632565b91506020830135801515811461185957600080fd5b809150509250929050565b6000806000806080858703121561187a57600080fd5b843561188581611632565b9350602085013561189581611632565b925060408501359150606085013567ffffffffffffffff8111156118b857600080fd5b8501601f810187136118c957600080fd5b6118d887823560208401611746565b91505092959194509250565b600080604083850312156118f757600080fd5b823561190281611632565b9150602083013561185981611632565b6000806040838503121561192557600080fd5b82359150602083013561185981611632565b600181811c9082168061194b57607f821691505b60208210810361196b57634e487b7160e01b600052602260045260246000fd5b50919050565b60006020828403121561198357600080fd5b8151610c3781611632565b634e487b7160e01b600052601160045260246000fd5b808201808211156104495761044961198e565b818103818111156104495761044961198e565b6000600182016119dc576119dc61198e565b5060010190565b634e487b7160e01b600052603260045260246000fd5b601f8211156106dc57806000526020600020601f840160051c81016020851015611a205750805b601f840160051c820191505b8181101561117a5760008155600101611a2c565b815167ffffffffffffffff811115611a5a57611a5a611730565b611a6e81611a688454611937565b846119f9565b6020601f821160018114611aa25760008315611a8a5750848201515b600019600385901b1c1916600184901b17845561117a565b600084815260208120601f198516915b82811015611ad25787850151825560209485019460019092019101611ab2565b5084821015611af05786840151600019600387901b60f8161c191681555b50505050600190811b01905550565b60008351611b118184602088016115b6565b835190830190611b258183602088016115b6565b01949350505050565b6001600160a01b0385811682528416602082015260408101839052608060608201819052600090611b61908301846115da565b9695505050505050565b600060208284031215611b7d57600080fd5b8151610c378161158356fea2646970667358221220fbcc852c2b7b530c4784b1cd78f0dbb21ed276136d0562ac9cc057fb6bec4e8d64736f6c634300081a0033",
  "linkReferences": {},
  "deployedLinkReferences": {}
}