{
  "_format": "hh-sol-artifact-1",
  "contractName": "EVMUniversalToken",
  "sourceName": "contracts/EVMUniversalToken.sol",
  "abi": [
    {
      "inputs": [
        {
          "internalType": "string",
          "name": "name_",
          "type": "string"
        },
        {
          "internalType": "string",
          "name": "symbol_",
          "type": "string"
        },
        {
          "internalType": "uint8",
          "name": "decimals_",
          "type": "uint8"
        },
        {
          "internalType": "uint256",
          "name": "initialSupply",
          "type": "uint256"
        },
        {
          "internalType": "uint256",
          "name": "currentChainId",
          "type": "uint256"
        },
        {
          "internalType": "address",
          "name": "initialOwner",
          "type": "address"
        }
      ],
      "stateMutability": "nonpayable",
      "type": "constructor"
    },
    {
      "inputs": [
        {
          "internalType": "address",
          "name": "spender",
          "type": "address"
        },
        {
          "internalType": "uint256",
          "name": "allowance",
          "type": "uint256"
        },
        {
          "internalType": "uint256",
          "name": "needed",
          "type": "uint256"
        }
      ],
      "name": "ERC20InsufficientAllowance",
      "type": "error"
    },
    {
      "inputs": [
        {
          "internalType": "address",
          "name": "sender",
          "type": "address"
        },
        {
          "internalType": "uint256",
          "name": "balance",
          "type": "uint256"
        },
        {
          "internalType": "uint256",
          "name": "needed",
          "type": "uint256"
        }
      ],
      "name": "ERC20InsufficientBalance",
      "type": "error"
    },
    {
      "inputs": [
        {
          "internalType": "address",
          "name": "approver",
          "type": "address"
        }
      ],
      "name": "ERC20InvalidApprover",
      "type": "error"
    },
    {
      "inputs": [
        {
          "internalType": "address",
          "name": "receiver",
          "type": "address"
        }
      ],
      "name": "ERC20InvalidReceiver",
      "type": "error"
    },
    {
      "inputs": [
        {
          "internalType": "address",
          "name": "sender",
          "type": "address"
        }
      ],
      "name": "ERC20InvalidSender",
      "type": "error"
    },
    {
      "inputs": [
        {
          "internalType": "address",
          "name": "spender",
          "type": "address"
        }
      ],
      "name": "ERC20InvalidSpender",
      "type": "error"
    },
    {
      "inputs": [
        {
          "internalType": "address",
          "name": "owner",
          "type": "address"
        }
      ],
      "name": "OwnableInvalidOwner",
      "type": "error"
    },
    {
      "inputs": [
        {
          "internalType": "address",
          "name": "account",
          "type": "address"
        }
      ],
      "name": "OwnableUnauthorizedAccount",
      "type": "error"
    },
    {
      "anonymous": false,
      "inputs": [
        {
          "indexed": true,
          "internalType": "address",
          "name": "owner",
          "type": "address"
        },
        {
          "indexed": true,
          "internalType": "address",
          "name": "spender",
          "type": "address"
        },
        {
          "indexed": false,
          "internalType": "uint256",
          "name": "value",
          "type": "uint256"
        }
      ],
      "name": "Approval",
      "type": "event"
    },
    {
      "anonymous": false,
      "inputs": [
        {
          "indexed": false,
          "internalType": "address",
          "name": "from",
          "type": "address"
        },
        {
          "indexed": false,
          "internalType": "uint256",
          "name": "destChainId",
          "type": "uint256"
        },
        {
          "indexed": false,
          "internalType": "address",
          "name": "to",
          "type": "address"
        },
        {
          "indexed": false,
          "internalType": "uint256",
          "name": "amount",
          "type": "uint256"
        }
      ],
      "name": "CrossChainTransferInitiated",
      "type": "event"
    },
    {
      "anonymous": false,
      "inputs": [
        {
          "indexed": false,
          "internalType": "uint256",
          "name": "sourceChainId",
          "type": "uint256"
        },
        {
          "indexed": false,
          "internalType": "address",
          "name": "from",
          "type": "address"
        },
        {
          "indexed": false,
          "internalType": "address",
          "name": "to",
          "type": "address"
        },
        {
          "indexed": false,
          "internalType": "uint256",
          "name": "amount",
          "type": "uint256"
        }
      ],
      "name": "CrossChainTransferReceived",
      "type": "event"
    },
    {
      "anonymous": false,
      "inputs": [
        {
          "indexed": true,
          "internalType": "address",
          "name": "previousOwner",
          "type": "address"
        },
        {
          "indexed": true,
          "internalType": "address",
          "name": "newOwner",
          "type": "address"
        }
      ],
      "name": "OwnershipTransferred",
      "type": "event"
    },
    {
      "anonymous": false,
      "inputs": [
        {
          "indexed": true,
          "internalType": "address",
          "name": "from",
          "type": "address"
        },
        {
          "indexed": true,
          "internalType": "address",
          "name": "to",
          "type": "address"
        },
        {
          "indexed": false,
          "internalType": "uint256",
          "name": "value",
          "type": "uint256"
        }
      ],
      "name": "Transfer",
      "type": "event"
    },
    {
      "anonymous": false,
      "inputs": [
        {
          "indexed": false,
          "internalType": "address",
          "name": "contractAddress",
          "type": "address"
        }
      ],
      "name": "ZetaChainContractSet",
      "type": "event"
    },
    {
      "inputs": [],
      "name": "ZETACHAIN_ID",
      "outputs": [
        {
          "internalType": "uint256",
          "name": "",
          "type": "uint256"
        }
      ],
      "stateMutability": "view",
      "type": "function"
    },
    {
      "inputs": [
        {
          "internalType": "address",
          "name": "owner",
          "type": "address"
        },
        {
          "internalType": "address",
          "name": "spender",
          "type": "address"
        }
      ],
      "name": "allowance",
      "outputs": [
        {
          "internalType": "uint256",
          "name": "",
          "type": "uint256"
        }
      ],
      "stateMutability": "view",
      "type": "function"
    },
    {
      "inputs": [
        {
          "internalType": "address",
          "name": "spender",
          "type": "address"
        },
        {
          "internalType": "uint256",
          "name": "value",
          "type": "uint256"
        }
      ],
      "name": "approve",
      "outputs": [
        {
          "internalType": "bool",
          "name": "",
          "type": "bool"
        }
      ],
      "stateMutability": "nonpayable",
      "type": "function"
    },
    {
      "inputs": [
        {
          "internalType": "address",
          "name": "account",
          "type": "address"
        }
      ],
      "name": "balanceOf",
      "outputs": [
        {
          "internalType": "uint256",
          "name": "",
          "type": "uint256"
        }
      ],
      "stateMutability": "view",
      "type": "function"
    },
    {
      "inputs": [
        {
          "internalType": "address",
          "name": "from",
          "type": "address"
        },
        {
          "internalType": "uint256",
          "name": "amount",
          "type": "uint256"
        }
      ],
      "name": "burn",
      "outputs": [],
      "stateMutability": "nonpayable",
      "type": "function"
    },
    {
      "inputs": [],
      "name": "chainId",
      "outputs": [
        {
          "internalType": "uint256",
          "name": "",
          "type": "uint256"
        }
      ],
      "stateMutability": "view",
      "type": "function"
    },
    {
      "inputs": [
        {
          "internalType": "uint256",
          "name": "destChainId",
          "type": "uint256"
        },
        {
          "internalType": "address",
          "name": "recipient",
          "type": "address"
        },
        {
          "internalType": "uint256",
          "name": "amount",
          "type": "uint256"
        }
      ],
      "name": "crossChainTransfer",
      "outputs": [],
      "stateMutability": "nonpayable",
      "type": "function"
    },
    {
      "inputs": [],
      "name": "decimals",
      "outputs": [
        {
          "internalType": "uint8",
          "name": "",
          "type": "uint8"
        }
      ],
      "stateMutability": "view",
      "type": "function"
    },
    {
      "inputs": [
        {
          "internalType": "address",
          "name": "to",
          "type": "address"
        },
        {
          "internalType": "uint256",
          "name": "amount",
          "type": "uint256"
        }
      ],
      "name": "mint",
      "outputs": [],
      "stateMutability": "nonpayable",
      "type": "function"
    },
    {
      "inputs": [],
      "name": "name",
      "outputs": [
        {
          "internalType": "string",
          "name": "",
          "type": "string"
        }
      ],
      "stateMutability": "view",
      "type": "function"
    },
    {
      "inputs": [],
      "name": "owner",
      "outputs": [
        {
          "internalType": "address",
          "name": "",
          "type": "address"
        }
      ],
      "stateMutability": "view",
      "type": "function"
    },
    {
      "inputs": [
        {
          "internalType": "uint256",
          "name": "sourceChainId",
          "type": "uint256"
        },
        {
          "internalType": "address",
          "name": "sender",
          "type": "address"
        },
        {
          "internalType": "address",
          "name": "recipient",
          "type": "address"
        },
        {
          "internalType": "uint256",
          "name": "amount",
          "type": "uint256"
        }
      ],
      "name": "receiveCrossChainTransfer",
      "outputs": [],
      "stateMutability": "nonpayable",
      "type": "function"
    },
    {
      "inputs": [],
      "name": "renounceOwnership",
      "outputs": [],
      "stateMutability": "nonpayable",
      "type": "function"
    },
    {
      "inputs": [
        {
          "internalType": "address",
          "name": "contractAddress",
          "type": "address"
        }
      ],
      "name": "setZetaChainContract",
      "outputs": [],
      "stateMutability": "nonpayable",
      "type": "function"
    },
    {
      "inputs": [],
      "name": "symbol",
      "outputs": [
        {
          "internalType": "string",
          "name": "",
          "type": "string"
        }
      ],
      "stateMutability": "view",
      "type": "function"
    },
    {
      "inputs": [],
      "name": "totalSupply",
      "outputs": [
        {
          "internalType": "uint256",
          "name": "",
          "type": "uint256"
        }
      ],
      "stateMutability": "view",
      "type": "function"
    },
    {
      "inputs": [
        {
          "internalType": "address",
          "name": "to",
          "type": "address"
        },
        {
          "internalType": "uint256",
          "name": "value",
          "type": "uint256"
        }
      ],
      "name": "transfer",
      "outputs": [
        {
          "internalType": "bool",
          "name": "",
          "type": "bool"
        }
      ],
      "stateMutability": "nonpayable",
      "type": "function"
    },
    {
      "inputs": [
        {
          "internalType": "address",
          "name": "from",
          "type": "address"
        },
        {
          "internalType": "address",
          "name": "to",
          "type": "address"
        },
        {
          "internalType": "uint256",
          "name": "value",
          "type": "uint256"
        }
      ],
      "name": "transferFrom",
      "outputs": [
        {
          "internalType": "bool",
          "name": "",
          "type": "bool"
        }
      ],
      "stateMutability": "nonpayable",
      "type": "function"
    },
    {
      "inputs": [
        {
          "internalType": "address",
          "name": "newOwner",
          "type": "address"
        }
      ],
      "name": "transferOwnership",
      "outputs": [],
      "stateMutability": "nonpayable",
      "type": "function"
    },
    {
      "inputs": [],
      "name": "zetaChainContract",
      "outputs": [
        {
          "internalType": "address",
          "name": "",
          "type": "address"
        }
      ],
      "stateMutability": "view",
      "type": "function"
    }
  ],
  "bytecode": "0x60a060405234801561001057600080fd5b5060405161152b38038061152b83398101604081905261002f916103a2565b85858583808484600361004283826104e1565b50600461004f82826104e1565b5050506001600160a01b03811661008157604051631e4fbdf760e01b8152600060048201526024015b60405180910390fd5b61008a81610133565b50506005805460ff909216600160a01b0260ff60a01b199092169190911790555050611b571982016101135760405162461bcd60e51b815260206004820152602c60248201527f43616e6e6f74206465706c6f792045564d556e6976657273616c546f6b656e2060448201526b37b7102d32ba30a1b430b4b760a11b6064820152608401610078565b60808290528215610128576101288184610185565b5050505050506105c6565b600580546001600160a01b038381166001600160a01b0319831681179093556040519116919082907f8be0079c531659141344cd1fd0a4f28419497f9722a3daafe3b4186f6b6457e090600090a35050565b6001600160a01b0382166101af5760405163ec442f0560e01b815260006004820152602401610078565b6101bb600083836101bf565b5050565b6001600160a01b0383166101ea5780600260008282546101df919061059f565b9091555061025c9050565b6001600160a01b0383166000908152602081905260409020548181101561023d5760405163391434e360e21b81526001600160a01b03851660048201526024810182905260448101839052606401610078565b6001600160a01b03841660009081526020819052604090209082900390555b6001600160a01b03821661027857600280548290039055610297565b6001600160a01b03821660009081526020819052604090208054820190555b816001600160a01b0316836001600160a01b03167fddf252ad1be2c89b69c2b068fc378daa952ba7f163c4a11628f55a4df523b3ef836040516102dc91815260200190565b60405180910390a3505050565b634e487b7160e01b600052604160045260246000fd5b600082601f83011261031057600080fd5b81516001600160401b03811115610329576103296102e9565b604051601f8201601f19908116603f011681016001600160401b0381118282101715610357576103576102e9565b60405281815283820160200185101561036f57600080fd5b60005b8281101561038e57602081860181015183830182015201610372565b506000918101602001919091529392505050565b60008060008060008060c087890312156103bb57600080fd5b86516001600160401b038111156103d157600080fd5b6103dd89828a016102ff565b602089015190975090506001600160401b038111156103fb57600080fd5b61040789828a016102ff565b955050604087015160ff8116811461041e57600080fd5b6060880151608089015160a08a015192965090945092506001600160a01b038116811461044a57600080fd5b809150509295509295509295565b600181811c9082168061046c57607f821691505b60208210810361048c57634e487b7160e01b600052602260045260246000fd5b50919050565b601f8211156104dc57806000526020600020601f840160051c810160208510156104b95750805b601f840160051c820191505b818110156104d957600081556001016104c5565b50505b505050565b81516001600160401b038111156104fa576104fa6102e9565b61050e816105088454610458565b84610492565b6020601f821160018114610542576000831561052a5750848201515b600019600385901b1c1916600184901b1784556104d9565b600084815260208120601f198516915b828110156105725787850151825560209485019460019092019101610552565b50848210156105905786840151600019600387901b60f8161c191681555b50505050600190811b01905550565b808201808211156105c057634e487b7160e01b600052601160045260246000fd5b92915050565b608051610f3c6105ef60003960008181610252015281816104b5015261063a0152610f3c6000f3fe608060405234801561001057600080fd5b506004361061012c5760003560e01c80638da5cb5b116100ad578063b590659f11610071578063b590659f1461029a578063dd62ed3e146102ad578063f2fde38b146102e6578063f6e7393c146102f9578063fd9622301461030c57600080fd5b80638da5cb5b1461023457806395d89b41146102455780639a8a05921461024d5780639dc29fac14610274578063a9059cbb1461028757600080fd5b8063313ce567116100f4578063313ce567146101a457806340c10f19146101c35780636c48e4e2146101d857806370a0823114610203578063715018a61461022c57600080fd5b806306fdde0314610131578063095ea7b31461014f57806315c22a291461017257806318160ddd1461018957806323b872dd14610191575b600080fd5b61013961031f565b6040516101469190610d1c565b60405180910390f35b61016261015d366004610d86565b6103b1565b6040519015158152602001610146565b61017b611b5881565b604051908152602001610146565b60025461017b565b61016261019f366004610db0565b6103cb565b600554600160a01b900460ff1660405160ff9091168152602001610146565b6101d66101d1366004610d86565b6103ef565b005b6006546101eb906001600160a01b031681565b6040516001600160a01b039091168152602001610146565b61017b610211366004610ded565b6001600160a01b031660009081526020819052604090205490565b6101d6610405565b6005546001600160a01b03166101eb565b610139610419565b61017b7f000000000000000000000000000000000000000000000000000000000000000081565b6101d6610282366004610d86565b610428565b610162610295366004610d86565b61049d565b6101d66102a8366004610e0f565b6104ab565b61017b6102bb366004610e53565b6001600160a01b03918216600090815260016020908152604080832093909416825291909152205490565b6101d66102f4366004610ded565b610624565b6101d6610307366004610e86565b610638565b6101d661031a366004610ded565b610855565b60606003805461032e90610eab565b80601f016020809104026020016040519081016040528092919081815260200182805461035a90610eab565b80156103a75780601f1061037c576101008083540402835291602001916103a7565b820191906000526020600020905b81548152906001019060200180831161038a57829003601f168201915b5050505050905090565b6000336103bf818585610907565b60019150505b92915050565b6000336103d9858285610919565b6103e4858585610998565b506001949350505050565b6103f76109f7565b6104018282610a24565b5050565b61040d6109f7565b6104176000610a5a565b565b60606004805461032e90610eab565b336001600160a01b038316148061044957506005546001600160a01b031633145b6104935760405162461bcd60e51b81526020600482015260166024820152752737ba1030baba3437b934bd32b2103a3790313ab93760511b60448201526064015b60405180910390fd5b6104018282610aac565b6000336103bf818585610998565b6104b36109f7565b7f000000000000000000000000000000000000000000000000000000000000000084036105225760405162461bcd60e51b815260206004820152601e60248201527f43616e6e6f7420726563656976652066726f6d2073616d6520636861696e0000604482015260640161048a565b6001600160a01b0382166105745760405162461bcd60e51b8152602060048201526019602482015278496e76616c696420726563697069656e74206164647265737360381b604482015260640161048a565b600081116105c45760405162461bcd60e51b815260206004820181905260248201527f416d6f756e74206d7573742062652067726561746572207468616e207a65726f604482015260640161048a565b6105ce8282610a24565b604080518581526001600160a01b0385811660208301528416818301526060810183905290517f94ea98de90518192983446df327b4bba637838a5dc22acea10aa085edb4ca0829181900360800190a150505050565b61062c6109f7565b61063581610ae2565b50565b7f000000000000000000000000000000000000000000000000000000000000000083036106a75760405162461bcd60e51b815260206004820152601d60248201527f43616e6e6f74207472616e7366657220746f2073616d6520636861696e000000604482015260640161048a565b6006546001600160a01b03166106ff5760405162461bcd60e51b815260206004820152601a60248201527f5a657461436861696e20636f6e7472616374206e6f7420736574000000000000604482015260640161048a565b6001600160a01b0382166107515760405162461bcd60e51b8152602060048201526019602482015278496e76616c696420726563697069656e74206164647265737360381b604482015260640161048a565b600081116107a15760405162461bcd60e51b815260206004820181905260248201527f416d6f756e74206d7573742062652067726561746572207468616e207a65726f604482015260640161048a565b336000908152602081905260409020548111156107f75760405162461bcd60e51b8152602060048201526014602482015273496e73756666696369656e742062616c616e636560601b604482015260640161048a565b6108013382610aac565b60408051338152602081018590526001600160a01b038416818301526060810183905290517f50963a9a1e57449f5ce66906ec00c0399a28d5c46f25d2d0d266a42ce61921379181900360800190a1505050565b61085d6109f7565b6001600160a01b0381166108b35760405162461bcd60e51b815260206004820152601860248201527f496e76616c696420636f6e747261637420616464726573730000000000000000604482015260640161048a565b600680546001600160a01b0319166001600160a01b0383169081179091556040519081527f3ff8b1f18cb984fd6f382372f67bbb5dd1a743490397db8c38e9f42594b9174b9060200160405180910390a150565b6109148383836001610b1d565b505050565b6001600160a01b03838116600090815260016020908152604080832093861683529290522054600019811015610992578181101561098357604051637dc7a0d960e11b81526001600160a01b0384166004820152602481018290526044810183905260640161048a565b61099284848484036000610b1d565b50505050565b6001600160a01b0383166109c257604051634b637e8f60e11b81526000600482015260240161048a565b6001600160a01b0382166109ec5760405163ec442f0560e01b81526000600482015260240161048a565b610914838383610bf2565b6005546001600160a01b031633146104175760405163118cdaa760e01b815233600482015260240161048a565b6001600160a01b038216610a4e5760405163ec442f0560e01b81526000600482015260240161048a565b61040160008383610bf2565b600580546001600160a01b038381166001600160a01b0319831681179093556040519116919082907f8be0079c531659141344cd1fd0a4f28419497f9722a3daafe3b4186f6b6457e090600090a35050565b6001600160a01b038216610ad657604051634b637e8f60e11b81526000600482015260240161048a565b61040182600083610bf2565b610aea6109f7565b6001600160a01b038116610b1457604051631e4fbdf760e01b81526000600482015260240161048a565b61063581610a5a565b6001600160a01b038416610b475760405163e602df0560e01b81526000600482015260240161048a565b6001600160a01b038316610b7157604051634a1406b160e11b81526000600482015260240161048a565b6001600160a01b038085166000908152600160209081526040808320938716835292905220829055801561099257826001600160a01b0316846001600160a01b03167f8c5be1e5ebec7d5bd14f71427d1e84f3dd0314c0f7b2291e5b200ac8c7c3b92584604051610be491815260200190565b60405180910390a350505050565b6001600160a01b038316610c1d578060026000828254610c129190610ee5565b90915550610c8f9050565b6001600160a01b03831660009081526020819052604090205481811015610c705760405163391434e360e21b81526001600160a01b0385166004820152602481018290526044810183905260640161048a565b6001600160a01b03841660009081526020819052604090209082900390555b6001600160a01b038216610cab57600280548290039055610cca565b6001600160a01b03821660009081526020819052604090208054820190555b816001600160a01b0316836001600160a01b03167fddf252ad1be2c89b69c2b068fc378daa952ba7f163c4a11628f55a4df523b3ef83604051610d0f91815260200190565b60405180910390a3505050565b602081526000825180602084015260005b81811015610d4a5760208186018101516040868401015201610d2d565b506000604082850101526040601f19601f83011684010191505092915050565b80356001600160a01b0381168114610d8157600080fd5b919050565b60008060408385031215610d9957600080fd5b610da283610d6a565b946020939093013593505050565b600080600060608486031215610dc557600080fd5b610dce84610d6a565b9250610ddc60208501610d6a565b929592945050506040919091013590565b600060208284031215610dff57600080fd5b610e0882610d6a565b9392505050565b60008060008060808587031215610e2557600080fd5b84359350610e3560208601610d6a565b9250610e4360408601610d6a565b9396929550929360600135925050565b60008060408385031215610e6657600080fd5b610e6f83610d6a565b9150610e7d60208401610d6a565b90509250929050565b600080600060608486031215610e9b57600080fd5b83359250610ddc60208501610d6a565b600181811c90821680610ebf57607f821691505b602082108103610edf57634e487b7160e01b600052602260045260246000fd5b50919050565b808201808211156103c557634e487b7160e01b600052601160045260246000fdfea264697066735822122039e649c1d12306e7384ab867d50ad09527945c51884f710dca0e0062e6cd901364736f6c634300081a0033",
  "linkReferences": {},
  "deployedLinkReferences": {}
}