{
  "_format": "hh-sol-artifact-1",
  "contractName": "ZetaChainUniversalToken",
  "sourceName": "contracts/ZetaChainUniversalToken.sol",
  "abi": [
    {
      "inputs": [
        {
          "internalType": "string",
          "name": "name_",
          "type": "string"
        },
        {
          "internalType": "string",
          "name": "symbol_",
          "type": "string"
        },
        {
          "internalType": "uint8",
          "name": "decimals_",
          "type": "uint8"
        },
        {
          "internalType": "uint256",
          "name": "initialSupply",
          "type": "uint256"
        },
        {
          "internalType": "address",
          "name": "initialOwner",
          "type": "address"
        }
      ],
      "stateMutability": "nonpayable",
      "type": "constructor"
    },
    {
      "inputs": [
        {
          "internalType": "address",
          "name": "spender",
          "type": "address"
        },
        {
          "internalType": "uint256",
          "name": "allowance",
          "type": "uint256"
        },
        {
          "internalType": "uint256",
          "name": "needed",
          "type": "uint256"
        }
      ],
      "name": "ERC20InsufficientAllowance",
      "type": "error"
    },
    {
      "inputs": [
        {
          "internalType": "address",
          "name": "sender",
          "type": "address"
        },
        {
          "internalType": "uint256",
          "name": "balance",
          "type": "uint256"
        },
        {
          "internalType": "uint256",
          "name": "needed",
          "type": "uint256"
        }
      ],
      "name": "ERC20InsufficientBalance",
      "type": "error"
    },
    {
      "inputs": [
        {
          "internalType": "address",
          "name": "approver",
          "type": "address"
        }
      ],
      "name": "ERC20InvalidApprover",
      "type": "error"
    },
    {
      "inputs": [
        {
          "internalType": "address",
          "name": "receiver",
          "type": "address"
        }
      ],
      "name": "ERC20InvalidReceiver",
      "type": "error"
    },
    {
      "inputs": [
        {
          "internalType": "address",
          "name": "sender",
          "type": "address"
        }
      ],
      "name": "ERC20InvalidSender",
      "type": "error"
    },
    {
      "inputs": [
        {
          "internalType": "address",
          "name": "spender",
          "type": "address"
        }
      ],
      "name": "ERC20InvalidSpender",
      "type": "error"
    },
    {
      "inputs": [
        {
          "internalType": "address",
          "name": "owner",
          "type": "address"
        }
      ],
      "name": "OwnableInvalidOwner",
      "type": "error"
    },
    {
      "inputs": [
        {
          "internalType": "address",
          "name": "account",
          "type": "address"
        }
      ],
      "name": "OwnableUnauthorizedAccount",
      "type": "error"
    },
    {
      "anonymous": false,
      "inputs": [
        {
          "indexed": true,
          "internalType": "address",
          "name": "owner",
          "type": "address"
        },
        {
          "indexed": true,
          "internalType": "address",
          "name": "spender",
          "type": "address"
        },
        {
          "indexed": false,
          "internalType": "uint256",
          "name": "value",
          "type": "uint256"
        }
      ],
      "name": "Approval",
      "type": "event"
    },
    {
      "anonymous": false,
      "inputs": [
        {
          "indexed": false,
          "internalType": "uint256",
          "name": "chainId",
          "type": "uint256"
        },
        {
          "indexed": false,
          "internalType": "address",
          "name": "contractAddress",
          "type": "address"
        }
      ],
      "name": "ConnectedContractSet",
      "type": "event"
    },
    {
      "anonymous": false,
      "inputs": [
        {
          "indexed": false,
          "internalType": "address",
          "name": "from",
          "type": "address"
        },
        {
          "indexed": false,
          "internalType": "uint256",
          "name": "destChainId",
          "type": "uint256"
        },
        {
          "indexed": false,
          "internalType": "address",
          "name": "to",
          "type": "address"
        },
        {
          "indexed": false,
          "internalType": "uint256",
          "name": "amount",
          "type": "uint256"
        }
      ],
      "name": "CrossChainTransferInitiated",
      "type": "event"
    },
    {
      "anonymous": false,
      "inputs": [
        {
          "indexed": false,
          "internalType": "uint256",
          "name": "sourceChainId",
          "type": "uint256"
        },
        {
          "indexed": false,
          "internalType": "address",
          "name": "from",
          "type": "address"
        },
        {
          "indexed": false,
          "internalType": "address",
          "name": "to",
          "type": "address"
        },
        {
          "indexed": false,
          "internalType": "uint256",
          "name": "amount",
          "type": "uint256"
        }
      ],
      "name": "CrossChainTransferReceived",
      "type": "event"
    },
    {
      "anonymous": false,
      "inputs": [
        {
          "indexed": true,
          "internalType": "address",
          "name": "previousOwner",
          "type": "address"
        },
        {
          "indexed": true,
          "internalType": "address",
          "name": "newOwner",
          "type": "address"
        }
      ],
      "name": "OwnershipTransferred",
      "type": "event"
    },
    {
      "anonymous": false,
      "inputs": [
        {
          "indexed": true,
          "internalType": "address",
          "name": "from",
          "type": "address"
        },
        {
          "indexed": true,
          "internalType": "address",
          "name": "to",
          "type": "address"
        },
        {
          "indexed": false,
          "internalType": "uint256",
          "name": "value",
          "type": "uint256"
        }
      ],
      "name": "Transfer",
      "type": "event"
    },
    {
      "inputs": [],
      "name": "ZETACHAIN_ID",
      "outputs": [
        {
          "internalType": "uint256",
          "name": "",
          "type": "uint256"
        }
      ],
      "stateMutability": "view",
      "type": "function"
    },
    {
      "inputs": [
        {
          "internalType": "address",
          "name": "owner",
          "type": "address"
        },
        {
          "internalType": "address",
          "name": "spender",
          "type": "address"
        }
      ],
      "name": "allowance",
      "outputs": [
        {
          "internalType": "uint256",
          "name": "",
          "type": "uint256"
        }
      ],
      "stateMutability": "view",
      "type": "function"
    },
    {
      "inputs": [
        {
          "internalType": "address",
          "name": "spender",
          "type": "address"
        },
        {
          "internalType": "uint256",
          "name": "value",
          "type": "uint256"
        }
      ],
      "name": "approve",
      "outputs": [
        {
          "internalType": "bool",
          "name": "",
          "type": "bool"
        }
      ],
      "stateMutability": "nonpayable",
      "type": "function"
    },
    {
      "inputs": [
        {
          "internalType": "address",
          "name": "account",
          "type": "address"
        }
      ],
      "name": "balanceOf",
      "outputs": [
        {
          "internalType": "uint256",
          "name": "",
          "type": "uint256"
        }
      ],
      "stateMutability": "view",
      "type": "function"
    },
    {
      "inputs": [
        {
          "internalType": "address",
          "name": "from",
          "type": "address"
        },
        {
          "internalType": "uint256",
          "name": "amount",
          "type": "uint256"
        }
      ],
      "name": "burn",
      "outputs": [],
      "stateMutability": "nonpayable",
      "type": "function"
    },
    {
      "inputs": [
        {
          "internalType": "uint256",
          "name": "",
          "type": "uint256"
        }
      ],
      "name": "connectedContracts",
      "outputs": [
        {
          "internalType": "address",
          "name": "",
          "type": "address"
        }
      ],
      "stateMutability": "view",
      "type": "function"
    },
    {
      "inputs": [
        {
          "internalType": "uint256",
          "name": "destChainId",
          "type": "uint256"
        },
        {
          "internalType": "address",
          "name": "recipient",
          "type": "address"
        },
        {
          "internalType": "uint256",
          "name": "amount",
          "type": "uint256"
        }
      ],
      "name": "crossChainTransfer",
      "outputs": [],
      "stateMutability": "nonpayable",
      "type": "function"
    },
    {
      "inputs": [],
      "name": "decimals",
      "outputs": [
        {
          "internalType": "uint8",
          "name": "",
          "type": "uint8"
        }
      ],
      "stateMutability": "view",
      "type": "function"
    },
    {
      "inputs": [
        {
          "internalType": "address",
          "name": "to",
          "type": "address"
        },
        {
          "internalType": "uint256",
          "name": "amount",
          "type": "uint256"
        }
      ],
      "name": "mint",
      "outputs": [],
      "stateMutability": "nonpayable",
      "type": "function"
    },
    {
      "inputs": [],
      "name": "name",
      "outputs": [
        {
          "internalType": "string",
          "name": "",
          "type": "string"
        }
      ],
      "stateMutability": "view",
      "type": "function"
    },
    {
      "inputs": [],
      "name": "owner",
      "outputs": [
        {
          "internalType": "address",
          "name": "",
          "type": "address"
        }
      ],
      "stateMutability": "view",
      "type": "function"
    },
    {
      "inputs": [
        {
          "internalType": "uint256",
          "name": "sourceChainId",
          "type": "uint256"
        },
        {
          "internalType": "address",
          "name": "sender",
          "type": "address"
        },
        {
          "internalType": "address",
          "name": "recipient",
          "type": "address"
        },
        {
          "internalType": "uint256",
          "name": "amount",
          "type": "uint256"
        }
      ],
      "name": "receiveCrossChainTransfer",
      "outputs": [],
      "stateMutability": "nonpayable",
      "type": "function"
    },
    {
      "inputs": [],
      "name": "renounceOwnership",
      "outputs": [],
      "stateMutability": "nonpayable",
      "type": "function"
    },
    {
      "inputs": [
        {
          "internalType": "uint256",
          "name": "chainId",
          "type": "uint256"
        },
        {
          "internalType": "address",
          "name": "contractAddress",
          "type": "address"
        }
      ],
      "name": "setConnectedContract",
      "outputs": [],
      "stateMutability": "nonpayable",
      "type": "function"
    },
    {
      "inputs": [],
      "name": "symbol",
      "outputs": [
        {
          "internalType": "string",
          "name": "",
          "type": "string"
        }
      ],
      "stateMutability": "view",
      "type": "function"
    },
    {
      "inputs": [],
      "name": "totalSupply",
      "outputs": [
        {
          "internalType": "uint256",
          "name": "",
          "type": "uint256"
        }
      ],
      "stateMutability": "view",
      "type": "function"
    },
    {
      "inputs": [
        {
          "internalType": "address",
          "name": "to",
          "type": "address"
        },
        {
          "internalType": "uint256",
          "name": "value",
          "type": "uint256"
        }
      ],
      "name": "transfer",
      "outputs": [
        {
          "internalType": "bool",
          "name": "",
          "type": "bool"
        }
      ],
      "stateMutability": "nonpayable",
      "type": "function"
    },
    {
      "inputs": [
        {
          "internalType": "address",
          "name": "from",
          "type": "address"
        },
        {
          "internalType": "address",
          "name": "to",
          "type": "address"
        },
        {
          "internalType": "uint256",
          "name": "value",
          "type": "uint256"
        }
      ],
      "name": "transferFrom",
      "outputs": [
        {
          "internalType": "bool",
          "name": "",
          "type": "bool"
        }
      ],
      "stateMutability": "nonpayable",
      "type": "function"
    },
    {
      "inputs": [
        {
          "internalType": "address",
          "name": "newOwner",
          "type": "address"
        }
      ],
      "name": "transferOwnership",
      "outputs": [],
      "stateMutability": "nonpayable",
      "type": "function"
    }
  ],
  "bytecode": "0x608060405234801561001057600080fd5b5060405161158638038061158683398101604081905261002f91610335565b848484838084846003610042838261046b565b50600461004f828261046b565b5050506001600160a01b03811661008157604051631e4fbdf760e01b8152600060048201526024015b60405180910390fd5b61008a816100c6565b50506005805460ff909216600160a01b0260ff60a01b19909216919091179055505081156100bc576100bc8183610118565b5050505050610550565b600580546001600160a01b038381166001600160a01b0319831681179093556040519116919082907f8be0079c531659141344cd1fd0a4f28419497f9722a3daafe3b4186f6b6457e090600090a35050565b6001600160a01b0382166101425760405163ec442f0560e01b815260006004820152602401610078565b61014e60008383610152565b5050565b6001600160a01b03831661017d5780600260008282546101729190610529565b909155506101ef9050565b6001600160a01b038316600090815260208190526040902054818110156101d05760405163391434e360e21b81526001600160a01b03851660048201526024810182905260448101839052606401610078565b6001600160a01b03841660009081526020819052604090209082900390555b6001600160a01b03821661020b5760028054829003905561022a565b6001600160a01b03821660009081526020819052604090208054820190555b816001600160a01b0316836001600160a01b03167fddf252ad1be2c89b69c2b068fc378daa952ba7f163c4a11628f55a4df523b3ef8360405161026f91815260200190565b60405180910390a3505050565b634e487b7160e01b600052604160045260246000fd5b600082601f8301126102a357600080fd5b81516001600160401b038111156102bc576102bc61027c565b604051601f8201601f19908116603f011681016001600160401b03811182821017156102ea576102ea61027c565b60405281815283820160200185101561030257600080fd5b60005b8281101561032157602081860181015183830182015201610305565b506000918101602001919091529392505050565b600080600080600060a0868803121561034d57600080fd5b85516001600160401b0381111561036357600080fd5b61036f88828901610292565b602088015190965090506001600160401b0381111561038d57600080fd5b61039988828901610292565b945050604086015160ff811681146103b057600080fd5b6060870151608088015191945092506001600160a01b03811681146103d457600080fd5b809150509295509295909350565b600181811c908216806103f657607f821691505b60208210810361041657634e487b7160e01b600052602260045260246000fd5b50919050565b601f82111561046657806000526020600020601f840160051c810160208510156104435750805b601f840160051c820191505b81811015610463576000815560010161044f565b50505b505050565b81516001600160401b038111156104845761048461027c565b6104988161049284546103e2565b8461041c565b6020601f8211600181146104cc57600083156104b45750848201515b600019600385901b1c1916600184901b178455610463565b600084815260208120601f198516915b828110156104fc57878501518255602094850194600190920191016104dc565b508482101561051a5786840151600019600387901b60f8161c191681555b50505050600190811b01905550565b8082018082111561054a57634e487b7160e01b600052601160045260246000fd5b92915050565b6110278061055f6000396000f3fe608060405234801561001057600080fd5b50600436106101215760003560e01c8063715018a6116100ad578063b590659f11610071578063b590659f1461027e578063dd62ed3e14610291578063f2fde38b146102ca578063f6e7393c146102dd578063f9221ef7146102f057600080fd5b8063715018a6146102375780638da5cb5b1461023f57806395d89b41146102505780639dc29fac14610258578063a9059cbb1461026b57600080fd5b806323b872dd116100f457806323b872dd14610186578063313ce5671461019957806340c10f19146101b85780636d91bfcc146101cd57806370a082311461020e57600080fd5b806306fdde0314610126578063095ea7b31461014457806315c22a291461016757806318160ddd1461017e575b600080fd5b61012e610303565b60405161013b9190610dcb565b60405180910390f35b610157610152366004610e35565b610395565b604051901515815260200161013b565b610170611b5881565b60405190815260200161013b565b600254610170565b610157610194366004610e5f565b6103af565b600554600160a01b900460ff1660405160ff909116815260200161013b565b6101cb6101c6366004610e35565b6103d3565b005b6101f66101db366004610e9c565b6006602052600090815260409020546001600160a01b031681565b6040516001600160a01b03909116815260200161013b565b61017061021c366004610eb5565b6001600160a01b031660009081526020819052604090205490565b6101cb6103e9565b6005546001600160a01b03166101f6565b61012e6103fd565b6101cb610266366004610e35565b61040c565b610157610279366004610e35565b610481565b6101cb61028c366004610ed7565b61048f565b61017061029f366004610f1b565b6001600160a01b03918216600090815260016020908152604080832093909416825291909152205490565b6101cb6102d8366004610eb5565b61065c565b6101cb6102eb366004610f4e565b610670565b6101cb6102fe366004610f73565b61088e565b60606003805461031290610f96565b80601f016020809104026020016040519081016040528092919081815260200182805461033e90610f96565b801561038b5780601f106103605761010080835404028352916020019161038b565b820191906000526020600020905b81548152906001019060200180831161036e57829003601f168201915b5050505050905090565b6000336103a38185856109b6565b60019150505b92915050565b6000336103bd8582856109c8565b6103c8858585610a47565b506001949350505050565b6103db610aa6565b6103e58282610ad3565b5050565b6103f1610aa6565b6103fb6000610b09565b565b60606004805461031290610f96565b336001600160a01b038316148061042d57506005546001600160a01b031633145b6104775760405162461bcd60e51b81526020600482015260166024820152752737ba1030baba3437b934bd32b2103a3790313ab93760511b60448201526064015b60405180910390fd5b6103e58282610b5b565b6000336103a3818585610a47565b610497610aa6565b611b5884036104e85760405162461bcd60e51b815260206004820152601e60248201527f43616e6e6f7420726563656976652066726f6d2073616d6520636861696e0000604482015260640161046e565b6000848152600660205260409020546001600160a01b031661055a5760405162461bcd60e51b815260206004820152602560248201527f4e6f20636f6e6e656374656420636f6e7472616374206f6e20736f757263652060448201526431b430b4b760d91b606482015260840161046e565b6001600160a01b0382166105ac5760405162461bcd60e51b8152602060048201526019602482015278496e76616c696420726563697069656e74206164647265737360381b604482015260640161046e565b600081116105fc5760405162461bcd60e51b815260206004820181905260248201527f416d6f756e74206d7573742062652067726561746572207468616e207a65726f604482015260640161046e565b6106068282610ad3565b604080518581526001600160a01b0385811660208301528416818301526060810183905290517f94ea98de90518192983446df327b4bba637838a5dc22acea10aa085edb4ca0829181900360800190a150505050565b610664610aa6565b61066d81610b91565b50565b611b5883036106c15760405162461bcd60e51b815260206004820152601d60248201527f43616e6e6f74207472616e7366657220746f2073616d6520636861696e000000604482015260640161046e565b6000838152600660205260409020546001600160a01b03166107385760405162461bcd60e51b815260206004820152602a60248201527f4e6f20636f6e6e656374656420636f6e7472616374206f6e2064657374696e616044820152693a34b7b71031b430b4b760b11b606482015260840161046e565b6001600160a01b03821661078a5760405162461bcd60e51b8152602060048201526019602482015278496e76616c696420726563697069656e74206164647265737360381b604482015260640161046e565b600081116107da5760405162461bcd60e51b815260206004820181905260248201527f416d6f756e74206d7573742062652067726561746572207468616e207a65726f604482015260640161046e565b336000908152602081905260409020548111156108305760405162461bcd60e51b8152602060048201526014602482015273496e73756666696369656e742062616c616e636560601b604482015260640161046e565b61083a3382610b5b565b60408051338152602081018590526001600160a01b038416818301526060810183905290517f50963a9a1e57449f5ce66906ec00c0399a28d5c46f25d2d0d266a42ce61921379181900360800190a1505050565b610896610aa6565b611b5882036108fa5760405162461bcd60e51b815260206004820152602a60248201527f43616e6e6f742073657420636f6e6e656374656420636f6e7472616374206f6e604482015269102d32ba30a1b430b4b760b11b606482015260840161046e565b6001600160a01b0381166109505760405162461bcd60e51b815260206004820152601860248201527f496e76616c696420636f6e747261637420616464726573730000000000000000604482015260640161046e565b60008281526006602090815260409182902080546001600160a01b0319166001600160a01b0385169081179091558251858152918201527f2fc33cb743ab169a721a7372c5a70bcfb722f81c08b5cac6c993f2e6d3e82e9d910160405180910390a15050565b6109c38383836001610bcc565b505050565b6001600160a01b03838116600090815260016020908152604080832093861683529290522054600019811015610a415781811015610a3257604051637dc7a0d960e11b81526001600160a01b0384166004820152602481018290526044810183905260640161046e565b610a4184848484036000610bcc565b50505050565b6001600160a01b038316610a7157604051634b637e8f60e11b81526000600482015260240161046e565b6001600160a01b038216610a9b5760405163ec442f0560e01b81526000600482015260240161046e565b6109c3838383610ca1565b6005546001600160a01b031633146103fb5760405163118cdaa760e01b815233600482015260240161046e565b6001600160a01b038216610afd5760405163ec442f0560e01b81526000600482015260240161046e565b6103e560008383610ca1565b600580546001600160a01b038381166001600160a01b0319831681179093556040519116919082907f8be0079c531659141344cd1fd0a4f28419497f9722a3daafe3b4186f6b6457e090600090a35050565b6001600160a01b038216610b8557604051634b637e8f60e11b81526000600482015260240161046e565b6103e582600083610ca1565b610b99610aa6565b6001600160a01b038116610bc357604051631e4fbdf760e01b81526000600482015260240161046e565b61066d81610b09565b6001600160a01b038416610bf65760405163e602df0560e01b81526000600482015260240161046e565b6001600160a01b038316610c2057604051634a1406b160e11b81526000600482015260240161046e565b6001600160a01b0380851660009081526001602090815260408083209387168352929052208290558015610a4157826001600160a01b0316846001600160a01b03167f8c5be1e5ebec7d5bd14f71427d1e84f3dd0314c0f7b2291e5b200ac8c7c3b92584604051610c9391815260200190565b60405180910390a350505050565b6001600160a01b038316610ccc578060026000828254610cc19190610fd0565b90915550610d3e9050565b6001600160a01b03831660009081526020819052604090205481811015610d1f5760405163391434e360e21b81526001600160a01b0385166004820152602481018290526044810183905260640161046e565b6001600160a01b03841660009081526020819052604090209082900390555b6001600160a01b038216610d5a57600280548290039055610d79565b6001600160a01b03821660009081526020819052604090208054820190555b816001600160a01b0316836001600160a01b03167fddf252ad1be2c89b69c2b068fc378daa952ba7f163c4a11628f55a4df523b3ef83604051610dbe91815260200190565b60405180910390a3505050565b602081526000825180602084015260005b81811015610df95760208186018101516040868401015201610ddc565b506000604082850101526040601f19601f83011684010191505092915050565b80356001600160a01b0381168114610e3057600080fd5b919050565b60008060408385031215610e4857600080fd5b610e5183610e19565b946020939093013593505050565b600080600060608486031215610e7457600080fd5b610e7d84610e19565b9250610e8b60208501610e19565b929592945050506040919091013590565b600060208284031215610eae57600080fd5b5035919050565b600060208284031215610ec757600080fd5b610ed082610e19565b9392505050565b60008060008060808587031215610eed57600080fd5b84359350610efd60208601610e19565b9250610f0b60408601610e19565b9396929550929360600135925050565b60008060408385031215610f2e57600080fd5b610f3783610e19565b9150610f4560208401610e19565b90509250929050565b600080600060608486031215610f6357600080fd5b83359250610e8b60208501610e19565b60008060408385031215610f8657600080fd5b82359150610f4560208401610e19565b600181811c90821680610faa57607f821691505b602082108103610fca57634e487b7160e01b600052602260045260246000fd5b50919050565b808201808211156103a957634e487b7160e01b600052601160045260246000fdfea26469706673582212206ae570fda10ffd2c25c859cecf6a33bc43250e5fbf66f82c8a4f063a9778a20864736f6c634300081a0033",
  "linkReferences": {},
  "deployedLinkReferences": {}
}