{
  "_format": "hh-sol-artifact-1",
  "contractName": "UniversalToken",
  "sourceName": "contracts/evm/UniversalToken.sol",
  "abi": [
    {
      "inputs": [],
      "stateMutability": "nonpayable",
      "type": "constructor"
    },
    {
      "inputs": [
        {
          "internalType": "address",
          "name": "target",
          "type": "address"
        }
      ],
      "name": "AddressEmptyCode",
      "type": "error"
    },
    {
      "inputs": [
        {
          "internalType": "address",
          "name": "implementation",
          "type": "address"
        }
      ],
      "name": "ERC1967InvalidImplementation",
      "type": "error"
    },
    {
      "inputs": [],
      "name": "ERC1967NonPayable",
      "type": "error"
    },
    {
      "inputs": [
        {
          "internalType": "address",
          "name": "spender",
          "type": "address"
        },
        {
          "internalType": "uint256",
          "name": "allowance",
          "type": "uint256"
        },
        {
          "internalType": "uint256",
          "name": "needed",
          "type": "uint256"
        }
      ],
      "name": "ERC20InsufficientAllowance",
      "type": "error"
    },
    {
      "inputs": [
        {
          "internalType": "address",
          "name": "sender",
          "type": "address"
        },
        {
          "internalType": "uint256",
          "name": "balance",
          "type": "uint256"
        },
        {
          "internalType": "uint256",
          "name": "needed",
          "type": "uint256"
        }
      ],
      "name": "ERC20InsufficientBalance",
      "type": "error"
    },
    {
      "inputs": [
        {
          "internalType": "address",
          "name": "approver",
          "type": "address"
        }
      ],
      "name": "ERC20InvalidApprover",
      "type": "error"
    },
    {
      "inputs": [
        {
          "internalType": "address",
          "name": "receiver",
          "type": "address"
        }
      ],
      "name": "ERC20InvalidReceiver",
      "type": "error"
    },
    {
      "inputs": [
        {
          "internalType": "address",
          "name": "sender",
          "type": "address"
        }
      ],
      "name": "ERC20InvalidSender",
      "type": "error"
    },
    {
      "inputs": [
        {
          "internalType": "address",
          "name": "spender",
          "type": "address"
        }
      ],
      "name": "ERC20InvalidSpender",
      "type": "error"
    },
    {
      "inputs": [],
      "name": "EnforcedPause",
      "type": "error"
    },
    {
      "inputs": [],
      "name": "ExpectedPause",
      "type": "error"
    },
    {
      "inputs": [],
      "name": "FailedCall",
      "type": "error"
    },
    {
      "inputs": [],
      "name": "GasTokenTransferFailed",
      "type": "error"
    },
    {
      "inputs": [],
      "name": "InvalidAddress",
      "type": "error"
    },
    {
      "inputs": [],
      "name": "InvalidGasLimit",
      "type": "error"
    },
    {
      "inputs": [],
      "name": "InvalidInitialization",
      "type": "error"
    },
    {
      "inputs": [],
      "name": "NotInitializing",
      "type": "error"
    },
    {
      "inputs": [
        {
          "internalType": "address",
          "name": "owner",
          "type": "address"
        }
      ],
      "name": "OwnableInvalidOwner",
      "type": "error"
    },
    {
      "inputs": [
        {
          "internalType": "address",
          "name": "account",
          "type": "address"
        }
      ],
      "name": "OwnableUnauthorizedAccount",
      "type": "error"
    },
    {
      "inputs": [],
      "name": "UUPSUnauthorizedCallContext",
      "type": "error"
    },
    {
      "inputs": [
        {
          "internalType": "bytes32",
          "name": "slot",
          "type": "bytes32"
        }
      ],
      "name": "UUPSUnsupportedProxiableUUID",
      "type": "error"
    },
    {
      "inputs": [],
      "name": "Unauthorized",
      "type": "error"
    },
    {
      "anonymous": false,
      "inputs": [
        {
          "indexed": true,
          "internalType": "address",
          "name": "owner",
          "type": "address"
        },
        {
          "indexed": true,
          "internalType": "address",
          "name": "spender",
          "type": "address"
        },
        {
          "indexed": false,
          "internalType": "uint256",
          "name": "value",
          "type": "uint256"
        }
      ],
      "name": "Approval",
      "type": "event"
    },
    {
      "anonymous": false,
      "inputs": [
        {
          "indexed": false,
          "internalType": "uint64",
          "name": "version",
          "type": "uint64"
        }
      ],
      "name": "Initialized",
      "type": "event"
    },
    {
      "anonymous": false,
      "inputs": [
        {
          "indexed": true,
          "internalType": "address",
          "name": "previousOwner",
          "type": "address"
        },
        {
          "indexed": true,
          "internalType": "address",
          "name": "newOwner",
          "type": "address"
        }
      ],
      "name": "OwnershipTransferred",
      "type": "event"
    },
    {
      "anonymous": false,
      "inputs": [
        {
          "indexed": false,
          "internalType": "address",
          "name": "account",
          "type": "address"
        }
      ],
      "name": "Paused",
      "type": "event"
    },
    {
      "anonymous": false,
      "inputs": [
        {
          "indexed": true,
          "internalType": "address",
          "name": "zrc20",
          "type": "address"
        },
        {
          "indexed": false,
          "internalType": "address",
          "name": "contractAddress",
          "type": "address"
        }
      ],
      "name": "SetConnected",
      "type": "event"
    },
    {
      "anonymous": false,
      "inputs": [
        {
          "indexed": true,
          "internalType": "address",
          "name": "universalAddress",
          "type": "address"
        }
      ],
      "name": "SetUniversal",
      "type": "event"
    },
    {
      "anonymous": false,
      "inputs": [
        {
          "indexed": true,
          "internalType": "address",
          "name": "to",
          "type": "address"
        },
        {
          "indexed": false,
          "internalType": "uint256",
          "name": "amount",
          "type": "uint256"
        }
      ],
      "name": "TokenMinted",
      "type": "event"
    },
    {
      "anonymous": false,
      "inputs": [
        {
          "indexed": true,
          "internalType": "address",
          "name": "destination",
          "type": "address"
        },
        {
          "indexed": true,
          "internalType": "address",
          "name": "receiver",
          "type": "address"
        },
        {
          "indexed": false,
          "internalType": "uint256",
          "name": "amount",
          "type": "uint256"
        }
      ],
      "name": "TokenTransfer",
      "type": "event"
    },
    {
      "anonymous": false,
      "inputs": [
        {
          "indexed": true,
          "internalType": "address",
          "name": "receiver",
          "type": "address"
        },
        {
          "indexed": false,
          "internalType": "uint256",
          "name": "amount",
          "type": "uint256"
        }
      ],
      "name": "TokenTransferReceived",
      "type": "event"
    },
    {
      "anonymous": false,
      "inputs": [
        {
          "indexed": true,
          "internalType": "address",
          "name": "sender",
          "type": "address"
        },
        {
          "indexed": false,
          "internalType": "uint256",
          "name": "amount",
          "type": "uint256"
        }
      ],
      "name": "TokenTransferReverted",
      "type": "event"
    },
    {
      "anonymous": false,
      "inputs": [
        {
          "indexed": true,
          "internalType": "address",
          "name": "destination",
          "type": "address"
        },
        {
          "indexed": true,
          "internalType": "address",
          "name": "sender",
          "type": "address"
        },
        {
          "indexed": false,
          "internalType": "uint256",
          "name": "amount",
          "type": "uint256"
        }
      ],
      "name": "TokenTransferToDestination",
      "type": "event"
    },
    {
      "anonymous": false,
      "inputs": [
        {
          "indexed": true,
          "internalType": "address",
          "name": "from",
          "type": "address"
        },
        {
          "indexed": true,
          "internalType": "address",
          "name": "to",
          "type": "address"
        },
        {
          "indexed": false,
          "internalType": "uint256",
          "name": "value",
          "type": "uint256"
        }
      ],
      "name": "Transfer",
      "type": "event"
    },
    {
      "anonymous": false,
      "inputs": [
        {
          "indexed": false,
          "internalType": "address",
          "name": "account",
          "type": "address"
        }
      ],
      "name": "Unpaused",
      "type": "event"
    },
    {
      "anonymous": false,
      "inputs": [
        {
          "indexed": true,
          "internalType": "address",
          "name": "implementation",
          "type": "address"
        }
      ],
      "name": "Upgraded",
      "type": "event"
    },
    {
      "inputs": [],
      "name": "UPGRADE_INTERFACE_VERSION",
      "outputs": [
        {
          "internalType": "string",
          "name": "",
          "type": "string"
        }
      ],
      "stateMutability": "view",
      "type": "function"
    },
    {
      "inputs": [
        {
          "internalType": "address",
          "name": "owner",
          "type": "address"
        },
        {
          "internalType": "address",
          "name": "spender",
          "type": "address"
        }
      ],
      "name": "allowance",
      "outputs": [
        {
          "internalType": "uint256",
          "name": "",
          "type": "uint256"
        }
      ],
      "stateMutability": "view",
      "type": "function"
    },
    {
      "inputs": [
        {
          "internalType": "address",
          "name": "spender",
          "type": "address"
        },
        {
          "internalType": "uint256",
          "name": "value",
          "type": "uint256"
        }
      ],
      "name": "approve",
      "outputs": [
        {
          "internalType": "bool",
          "name": "",
          "type": "bool"
        }
      ],
      "stateMutability": "nonpayable",
      "type": "function"
    },
    {
      "inputs": [
        {
          "internalType": "address",
          "name": "account",
          "type": "address"
        }
      ],
      "name": "balanceOf",
      "outputs": [
        {
          "internalType": "uint256",
          "name": "",
          "type": "uint256"
        }
      ],
      "stateMutability": "view",
      "type": "function"
    },
    {
      "inputs": [
        {
          "internalType": "uint256",
          "name": "value",
          "type": "uint256"
        }
      ],
      "name": "burn",
      "outputs": [],
      "stateMutability": "nonpayable",
      "type": "function"
    },
    {
      "inputs": [
        {
          "internalType": "address",
          "name": "account",
          "type": "address"
        },
        {
          "internalType": "uint256",
          "name": "value",
          "type": "uint256"
        }
      ],
      "name": "burnFrom",
      "outputs": [],
      "stateMutability": "nonpayable",
      "type": "function"
    },
    {
      "inputs": [],
      "name": "decimals",
      "outputs": [
        {
          "internalType": "uint8",
          "name": "",
          "type": "uint8"
        }
      ],
      "stateMutability": "view",
      "type": "function"
    },
    {
      "inputs": [],
      "name": "gasLimitAmount",
      "outputs": [
        {
          "internalType": "uint256",
          "name": "",
          "type": "uint256"
        }
      ],
      "stateMutability": "view",
      "type": "function"
    },
    {
      "inputs": [],
      "name": "gateway",
      "outputs": [
        {
          "internalType": "contract GatewayEVM",
          "name": "",
          "type": "address"
        }
      ],
      "stateMutability": "view",
      "type": "function"
    },
    {
      "inputs": [
        {
          "internalType": "address",
          "name": "initialOwner",
          "type": "address"
        },
        {
          "internalType": "string",
          "name": "name",
          "type": "string"
        },
        {
          "internalType": "string",
          "name": "symbol",
          "type": "string"
        },
        {
          "internalType": "address payable",
          "name": "gatewayAddress",
          "type": "address"
        },
        {
          "internalType": "uint256",
          "name": "gas",
          "type": "uint256"
        }
      ],
      "name": "initialize",
      "outputs": [],
      "stateMutability": "nonpayable",
      "type": "function"
    },
    {
      "inputs": [
        {
          "internalType": "address",
          "name": "to",
          "type": "address"
        },
        {
          "internalType": "uint256",
          "name": "amount",
          "type": "uint256"
        }
      ],
      "name": "mint",
      "outputs": [],
      "stateMutability": "nonpayable",
      "type": "function"
    },
    {
      "inputs": [],
      "name": "name",
      "outputs": [
        {
          "internalType": "string",
          "name": "",
          "type": "string"
        }
      ],
      "stateMutability": "view",
      "type": "function"
    },
    {
      "inputs": [
        {
          "components": [
            {
              "internalType": "address",
              "name": "sender",
              "type": "address"
            }
          ],
          "internalType": "struct MessageContext",
          "name": "context",
          "type": "tuple"
        },
        {
          "internalType": "bytes",
          "name": "message",
          "type": "bytes"
        }
      ],
      "name": "onCall",
      "outputs": [
        {
          "internalType": "bytes4",
          "name": "",
          "type": "bytes4"
        }
      ],
      "stateMutability": "payable",
      "type": "function"
    },
    {
      "inputs": [
        {
          "components": [
            {
              "internalType": "address",
              "name": "sender",
              "type": "address"
            },
            {
              "internalType": "address",
              "name": "asset",
              "type": "address"
            },
            {
              "internalType": "uint256",
              "name": "amount",
              "type": "uint256"
            },
            {
              "internalType": "bytes",
              "name": "revertMessage",
              "type": "bytes"
            }
          ],
          "internalType": "struct RevertContext",
          "name": "context",
          "type": "tuple"
        }
      ],
      "name": "onRevert",
      "outputs": [],
      "stateMutability": "nonpayable",
      "type": "function"
    },
    {
      "inputs": [],
      "name": "owner",
      "outputs": [
        {
          "internalType": "address",
          "name": "",
          "type": "address"
        }
      ],
      "stateMutability": "view",
      "type": "function"
    },
    {
      "inputs": [],
      "name": "pause",
      "outputs": [],
      "stateMutability": "nonpayable",
      "type": "function"
    },
    {
      "inputs": [],
      "name": "paused",
      "outputs": [
        {
          "internalType": "bool",
          "name": "",
          "type": "bool"
        }
      ],
      "stateMutability": "view",
      "type": "function"
    },
    {
      "inputs": [],
      "name": "proxiableUUID",
      "outputs": [
        {
          "internalType": "bytes32",
          "name": "",
          "type": "bytes32"
        }
      ],
      "stateMutability": "view",
      "type": "function"
    },
    {
      "inputs": [],
      "name": "renounceOwnership",
      "outputs": [],
      "stateMutability": "nonpayable",
      "type": "function"
    },
    {
      "inputs": [
        {
          "internalType": "uint256",
          "name": "gas",
          "type": "uint256"
        }
      ],
      "name": "setGasLimit",
      "outputs": [],
      "stateMutability": "nonpayable",
      "type": "function"
    },
    {
      "inputs": [
        {
          "internalType": "address",
          "name": "gatewayAddress",
          "type": "address"
        }
      ],
      "name": "setGateway",
      "outputs": [],
      "stateMutability": "nonpayable",
      "type": "function"
    },
    {
      "inputs": [
        {
          "internalType": "address",
          "name": "contractAddress",
          "type": "address"
        }
      ],
      "name": "setUniversal",
      "outputs": [],
      "stateMutability": "nonpayable",
      "type": "function"
    },
    {
      "inputs": [],
      "name": "symbol",
      "outputs": [
        {
          "internalType": "string",
          "name": "",
          "type": "string"
        }
      ],
      "stateMutability": "view",
      "type": "function"
    },
    {
      "inputs": [],
      "name": "totalSupply",
      "outputs": [
        {
          "internalType": "uint256",
          "name": "",
          "type": "uint256"
        }
      ],
      "stateMutability": "view",
      "type": "function"
    },
    {
      "inputs": [
        {
          "internalType": "address",
          "name": "to",
          "type": "address"
        },
        {
          "internalType": "uint256",
          "name": "value",
          "type": "uint256"
        }
      ],
      "name": "transfer",
      "outputs": [
        {
          "internalType": "bool",
          "name": "",
          "type": "bool"
        }
      ],
      "stateMutability": "nonpayable",
      "type": "function"
    },
    {
      "inputs": [
        {
          "internalType": "address",
          "name": "destination",
          "type": "address"
        },
        {
          "internalType": "address",
          "name": "receiver",
          "type": "address"
        },
        {
          "internalType": "uint256",
          "name": "amount",
          "type": "uint256"
        }
      ],
      "name": "transferCrossChain",
      "outputs": [],
      "stateMutability": "payable",
      "type": "function"
    },
    {
      "inputs": [
        {
          "internalType": "address",
          "name": "from",
          "type": "address"
        },
        {
          "internalType": "address",
          "name": "to",
          "type": "address"
        },
        {
          "internalType": "uint256",
          "name": "value",
          "type": "uint256"
        }
      ],
      "name": "transferFrom",
      "outputs": [
        {
          "internalType": "bool",
          "name": "",
          "type": "bool"
        }
      ],
      "stateMutability": "nonpayable",
      "type": "function"
    },
    {
      "inputs": [
        {
          "internalType": "address",
          "name": "newOwner",
          "type": "address"
        }
      ],
      "name": "transferOwnership",
      "outputs": [],
      "stateMutability": "nonpayable",
      "type": "function"
    },
    {
      "inputs": [],
      "name": "universal",
      "outputs": [
        {
          "internalType": "address",
          "name": "",
          "type": "address"
        }
      ],
      "stateMutability": "view",
      "type": "function"
    },
    {
      "inputs": [],
      "name": "unpause",
      "outputs": [],
      "stateMutability": "nonpayable",
      "type": "function"
    },
    {
      "inputs": [
        {
          "internalType": "address",
          "name": "newImplementation",
          "type": "address"
        },
        {
          "internalType": "bytes",
          "name": "data",
          "type": "bytes"
        }
      ],
      "name": "upgradeToAndCall",
      "outputs": [],
      "stateMutability": "payable",
      "type": "function"
    },
    {
      "stateMutability": "payable",
      "type": "receive"
    }
  ],
  "bytecode": "0x60a06040523060805234801561001457600080fd5b5061001d610022565b6100d4565b7ff0c57e16840df040f15088dc2f81fe391c3923bec73e23a9662efc9c229c6a00805468010000000000000000900460ff16156100725760405163f92ee8a960e01b815260040160405180910390fd5b80546001600160401b03908116146100d15780546001600160401b0319166001600160401b0390811782556040519081527fc7f505b2f371ae2175ee4913f4499e1f2633a7b5936321eed1cdaeb6115181d29060200160405180910390a15b50565b6080516123926100fd6000396000818161128a015281816112b3015261143101526123926000f3fe6080604052600436106101dc5760003560e01c8063715018a611610102578063a9059cbb11610095578063dd62ed3e11610064578063dd62ed3e146105ff578063e08aef1814610664578063ee7d72b414610677578063f2fde38b1461069757600080fd5b8063a9059cbb14610560578063ad3cb1cc14610580578063c9028a36146105c9578063d0f23970146105e957600080fd5b80638456cb59116100d15780638456cb59146104d95780638da5cb5b146104ee57806390646b4a1461052b57806395d89b411461054b57600080fd5b8063715018a61461046457806375b30be614610479578063784ec91f1461049957806379cc6790146104b957600080fd5b806340c10f191161017a57806352d1902d1161014957806352d1902d1461037f5780635c975abb14610394578063676cc054146103cb57806370a082311461040f57600080fd5b806340c10f191461030c57806342966c681461032c5780634ee628a31461034c5780634f1ef2861461036c57600080fd5b806318160ddd116101b657806318160ddd1461027b57806323b872dd146102b9578063313ce567146102d95780633f4ba83a146102f557600080fd5b806306fdde03146101e8578063095ea7b314610213578063116191b61461024357600080fd5b366101e357005b600080fd5b3480156101f457600080fd5b506101fd6106b7565b60405161020a9190611d0b565b60405180910390f35b34801561021f57600080fd5b5061023361022e366004611d33565b61078c565b604051901515815260200161020a565b34801561024f57600080fd5b50600054610263906001600160a01b031681565b6040516001600160a01b03909116815260200161020a565b34801561028757600080fd5b507f52c63247e1f47db19d5ce0460030c497f067ca4cebf71ba98eeadabe20bace02545b60405190815260200161020a565b3480156102c557600080fd5b506102336102d4366004611d5f565b6107a6565b3480156102e557600080fd5b506040516012815260200161020a565b34801561030157600080fd5b5061030a6107cc565b005b34801561031857600080fd5b5061030a610327366004611d33565b6107de565b34801561033857600080fd5b5061030a610347366004611da0565b6107f4565b34801561035857600080fd5b50600154610263906001600160a01b031681565b61030a61037a366004611e49565b610801565b34801561038b57600080fd5b506102ab61081c565b3480156103a057600080fd5b507fcd5ed15c6e187e77e9aee88184c21f4f2182ab5827cb3b7e07fbedcd63f033005460ff16610233565b6103de6103d9366004611ead565b61084b565b6040517fffffffff00000000000000000000000000000000000000000000000000000000909116815260200161020a565b34801561041b57600080fd5b506102ab61042a366004611f3a565b6001600160a01b031660009081527f52c63247e1f47db19d5ce0460030c497f067ca4cebf71ba98eeadabe20bace00602052604090205490565b34801561047057600080fd5b5061030a6109e5565b34801561048557600080fd5b5061030a610494366004611f77565b6109f7565b3480156104a557600080fd5b5061030a6104b4366004611f3a565b610b65565b3480156104c557600080fd5b5061030a6104d4366004611d33565b610bde565b3480156104e557600080fd5b5061030a610bf3565b3480156104fa57600080fd5b507f9016d09d72d40fdae2fd8ceac6b6234c7706214fd39c1cd1e609a0528c199300546001600160a01b0316610263565b34801561053757600080fd5b5061030a610546366004611f3a565b610c03565b34801561055757600080fd5b506101fd610c54565b34801561056c57600080fd5b5061023361057b366004611d33565b610ca5565b34801561058c57600080fd5b506101fd6040518060400160405280600581526020017f352e302e3000000000000000000000000000000000000000000000000000000081525081565b3480156105d557600080fd5b5061030a6105e436600461200d565b610cb3565b3480156105f557600080fd5b506102ab60025481565b34801561060b57600080fd5b506102ab61061a366004612048565b6001600160a01b0391821660009081527f52c63247e1f47db19d5ce0460030c497f067ca4cebf71ba98eeadabe20bace016020908152604080832093909416825291909152205490565b61030a610672366004611d5f565b610d50565b34801561068357600080fd5b5061030a610692366004611da0565b610f85565b3480156106a357600080fd5b5061030a6106b2366004611f3a565b610fb3565b7f52c63247e1f47db19d5ce0460030c497f067ca4cebf71ba98eeadabe20bace0380546060917f52c63247e1f47db19d5ce0460030c497f067ca4cebf71ba98eeadabe20bace009161070890612081565b80601f016020809104026020016040519081016040528092919081815260200182805461073490612081565b80156107815780601f1061075657610100808354040283529160200191610781565b820191906000526020600020905b81548152906001019060200180831161076457829003601f168201915b505050505091505090565b60003361079a81858561100c565b60019150505b92915050565b6000336107b485828561101e565b6107bf8585856110ce565b60019150505b9392505050565b6107d461112d565b6107dc6111a1565b565b6107e661112d565b6107f08282611213565b5050565b6107fe3382611249565b50565b61080961127f565b61081282611336565b6107f0828261133e565b6000610826611426565b507f360894a13ba1a3210667c828492db98dca3e2076cc3735a920a3ca505d382bbc90565b600080546001600160a01b03163314610876576040516282b42960e81b815260040160405180910390fd5b6001546001600160a01b031661088f6020860186611f3a565b6001600160a01b0316146108b5576040516282b42960e81b815260040160405180910390fd5b60008080806108c6868801886120bb565b93509350935093506108d88484611213565b8115610994576001600160a01b0381166109055760405163e6c4247b60e01b815260040160405180910390fd5b6000816001600160a01b03168360405160006040518083038185875af1925050503d8060008114610952576040519150601f19603f3d011682016040523d82523d6000602084013e610957565b606091505b5050905080610992576040517fafcb064000000000000000000000000000000000000000000000000000000000815260040160405180910390fd5b505b836001600160a01b03167f880d282bb510204715036b03cfd2b2dd3edb2b970b399c5207a8e4619e196f35846040516109cf91815260200190565b60405180910390a2506000979650505050505050565b6109ed61112d565b6107dc600061146f565b7ff0c57e16840df040f15088dc2f81fe391c3923bec73e23a9662efc9c229c6a00805468010000000000000000810460ff16159067ffffffffffffffff16600081158015610a425750825b905060008267ffffffffffffffff166001148015610a5f5750303b155b905081158015610a6d575080155b15610aa4576040517ff92ee8a900000000000000000000000000000000000000000000000000000000815260040160405180910390fd5b845467ffffffffffffffff191660011785558315610ad857845468ff00000000000000001916680100000000000000001785555b610ae289896114e0565b610aea6114f2565b610af26114fa565b610afb8a61150a565b610b036114f2565b610b0e87308861151b565b8315610b5957845468ff000000000000000019168555604051600181527fc7f505b2f371ae2175ee4913f4499e1f2633a7b5936321eed1cdaeb6115181d29060200160405180910390a15b50505050505050505050565b610b6d61112d565b6001600160a01b038116610b945760405163e6c4247b60e01b815260040160405180910390fd5b600180546001600160a01b0319166001600160a01b0383169081179091556040517f7c2aceab9e5ea924ba2f3285455133a28166ee3fcd968f0124dd61a77c4ba41d90600090a250565b610be982338361101e565b6107f08282611249565b610bfb61112d565b6107dc6115bf565b610c0b61112d565b6001600160a01b038116610c325760405163e6c4247b60e01b815260040160405180910390fd5b600080546001600160a01b0319166001600160a01b0392909216919091179055565b7f52c63247e1f47db19d5ce0460030c497f067ca4cebf71ba98eeadabe20bace0480546060917f52c63247e1f47db19d5ce0460030c497f067ca4cebf71ba98eeadabe20bace009161070890612081565b60003361079a8185856110ce565b6000546001600160a01b03163314610cdd576040516282b42960e81b815260040160405180910390fd5b600080610ced6060840184612105565b810190610cfa9190612153565b91509150610d088183611213565b806001600160a01b03167fbb544aafd6e30917818367aeb092ec56efddb776f92ddea673b4e9c70e9cd4ab83604051610d4391815260200190565b60405180910390a2505050565b6001600160a01b038216610d775760405163e6c4247b60e01b815260040160405180910390fd5b610d813382611249565b604080516001600160a01b038581166020830181905290851682840181905260608301859052336080808501919091528451808503909101815260a084019485905293859052917fd0ed88a3f042c6bbb1e3ea406079b5f2b4b198afccaa535d837f4c63abbc4de69060c00160405180910390a36001600160a01b038416610eb157600080546001546040805160a08101825230815260208101859052808201859052606081018690526080810194909452517f1becceb40000000000000000000000000000000000000000000000000000000081526001600160a01b0392831693631becceb493610e7a931691869190600401612178565b600060405180830381600087803b158015610e9457600080fd5b505af1158015610ea8573d6000803e3d6000fd5b50505050610f7f565b60008054600180546040805160a08101825230815260208082019490945280820195909552805192830187905233838201528051808403820181526060938401825292850192909252600254608085015290517f744b9b8b0000000000000000000000000000000000000000000000000000000081526001600160a01b039283169363744b9b8b933493610f4c939116918791600401612178565b6000604051808303818588803b158015610f6557600080fd5b505af1158015610f79573d6000803e3d6000fd5b50505050505b50505050565b610f8d61112d565b80600003610fae576040516304c5ed9760e51b815260040160405180910390fd5b600255565b610fbb61112d565b6001600160a01b038116611003576040517f1e4fbdf7000000000000000000000000000000000000000000000000000000008152600060048201526024015b60405180910390fd5b6107fe8161146f565b611019838383600161161a565b505050565b6001600160a01b0383811660009081527f52c63247e1f47db19d5ce0460030c497f067ca4cebf71ba98eeadabe20bace0160209081526040808320938616835292905220546000198114610f7f57818110156110bf576040517ffb8f41b20000000000000000000000000000000000000000000000000000000081526001600160a01b03841660048201526024810182905260448101839052606401610ffa565b610f7f8484848403600061161a565b6001600160a01b0383166110f857604051634b637e8f60e11b815260006004820152602401610ffa565b6001600160a01b0382166111225760405163ec442f0560e01b815260006004820152602401610ffa565b611019838383611746565b3361115f7f9016d09d72d40fdae2fd8ceac6b6234c7706214fd39c1cd1e609a0528c199300546001600160a01b031690565b6001600160a01b0316146107dc576040517f118cdaa7000000000000000000000000000000000000000000000000000000008152336004820152602401610ffa565b6111a9611751565b7fcd5ed15c6e187e77e9aee88184c21f4f2182ab5827cb3b7e07fbedcd63f03300805460ff191681557f5db9ee0a495bf2e6ff9c91a7834c1ba4fdd244a5e8aa4e537bd38aeae4b073aa335b6040516001600160a01b03909116815260200160405180910390a150565b6001600160a01b03821661123d5760405163ec442f0560e01b815260006004820152602401610ffa565b6107f060008383611746565b6001600160a01b03821661127357604051634b637e8f60e11b815260006004820152602401610ffa565b6107f082600083611746565b306001600160a01b037f000000000000000000000000000000000000000000000000000000000000000016148061131857507f00000000000000000000000000000000000000000000000000000000000000006001600160a01b031661130c7f360894a13ba1a3210667c828492db98dca3e2076cc3735a920a3ca505d382bbc546001600160a01b031690565b6001600160a01b031614155b156107dc5760405163703e46dd60e11b815260040160405180910390fd5b6107fe61112d565b816001600160a01b03166352d1902d6040518163ffffffff1660e01b8152600401602060405180830381865afa925050508015611398575060408051601f3d908101601f1916820190925261139591810190612200565b60015b6113c057604051634c9c8ce360e01b81526001600160a01b0383166004820152602401610ffa565b7f360894a13ba1a3210667c828492db98dca3e2076cc3735a920a3ca505d382bbc811461141c576040517faa1d49a400000000000000000000000000000000000000000000000000000000815260048101829052602401610ffa565b61101983836117ac565b306001600160a01b037f000000000000000000000000000000000000000000000000000000000000000016146107dc5760405163703e46dd60e11b815260040160405180910390fd5b7f9016d09d72d40fdae2fd8ceac6b6234c7706214fd39c1cd1e609a0528c19930080546001600160a01b031981166001600160a01b03848116918217845560405192169182907f8be0079c531659141344cd1fd0a4f28419497f9722a3daafe3b4186f6b6457e090600090a3505050565b6114e8611802565b6107f08282611869565b6107dc611802565b611502611802565b6107dc6118cc565b611512611802565b6107fe816118ff565b6001600160a01b0383166115425760405163e6c4247b60e01b815260040160405180910390fd5b6001600160a01b0382166115695760405163e6c4247b60e01b815260040160405180910390fd5b8060000361158a576040516304c5ed9760e51b815260040160405180910390fd5b600080546001600160a01b039485166001600160a01b0319918216179091556001805493909416921691909117909155600255565b6115c7611907565b7fcd5ed15c6e187e77e9aee88184c21f4f2182ab5827cb3b7e07fbedcd63f03300805460ff191660011781557f62e78cea01bee320cd4e420270b5ea74000d11b0c9f74754ebdbfc544b05a258336111f5565b7f52c63247e1f47db19d5ce0460030c497f067ca4cebf71ba98eeadabe20bace006001600160a01b03851661167e576040517fe602df0500000000000000000000000000000000000000000000000000000000815260006004820152602401610ffa565b6001600160a01b0384166116c1576040517f94280d6200000000000000000000000000000000000000000000000000000000815260006004820152602401610ffa565b6001600160a01b0380861660009081526001830160209081526040808320938816835292905220839055811561173f57836001600160a01b0316856001600160a01b03167f8c5be1e5ebec7d5bd14f71427d1e84f3dd0314c0f7b2291e5b200ac8c7c3b9258560405161173691815260200190565b60405180910390a35b5050505050565b611019838383611963565b7fcd5ed15c6e187e77e9aee88184c21f4f2182ab5827cb3b7e07fbedcd63f033005460ff166107dc576040517f8dfc202b00000000000000000000000000000000000000000000000000000000815260040160405180910390fd5b6117b582611976565b6040516001600160a01b038316907fbc7cd75a20ee27fd9adebab32041f755214dbc6bffa90cc0225b39da2e5c2d3b90600090a28051156117fa5761101982826119ed565b6107f0611a63565b7ff0c57e16840df040f15088dc2f81fe391c3923bec73e23a9662efc9c229c6a005468010000000000000000900460ff166107dc576040517fd7e6bcf800000000000000000000000000000000000000000000000000000000815260040160405180910390fd5b611871611802565b7f52c63247e1f47db19d5ce0460030c497f067ca4cebf71ba98eeadabe20bace007f52c63247e1f47db19d5ce0460030c497f067ca4cebf71ba98eeadabe20bace036118bd8482612260565b5060048101610f7f8382612260565b6118d4611802565b7fcd5ed15c6e187e77e9aee88184c21f4f2182ab5827cb3b7e07fbedcd63f03300805460ff19169055565b610fbb611802565b7fcd5ed15c6e187e77e9aee88184c21f4f2182ab5827cb3b7e07fbedcd63f033005460ff16156107dc576040517fd93c066500000000000000000000000000000000000000000000000000000000815260040160405180910390fd5b61196b611907565b611019838383611a9b565b806001600160a01b03163b6000036119ac57604051634c9c8ce360e01b81526001600160a01b0382166004820152602401610ffa565b7f360894a13ba1a3210667c828492db98dca3e2076cc3735a920a3ca505d382bbc80546001600160a01b0319166001600160a01b0392909216919091179055565b6060600080846001600160a01b031684604051611a0a919061231f565b600060405180830381855af49150503d8060008114611a45576040519150601f19603f3d011682016040523d82523d6000602084013e611a4a565b606091505b5091509150611a5a858383611c04565b95945050505050565b34156107dc576040517fb398979f00000000000000000000000000000000000000000000000000000000815260040160405180910390fd5b7f52c63247e1f47db19d5ce0460030c497f067ca4cebf71ba98eeadabe20bace006001600160a01b038416611ae95781816002016000828254611ade919061233b565b90915550611b749050565b6001600160a01b03841660009081526020829052604090205482811015611b55576040517fe450d38c0000000000000000000000000000000000000000000000000000000081526001600160a01b03861660048201526024810182905260448101849052606401610ffa565b6001600160a01b03851660009081526020839052604090209083900390555b6001600160a01b038316611b92576002810180548390039055611bb1565b6001600160a01b03831660009081526020829052604090208054830190555b826001600160a01b0316846001600160a01b03167fddf252ad1be2c89b69c2b068fc378daa952ba7f163c4a11628f55a4df523b3ef84604051611bf691815260200190565b60405180910390a350505050565b606082611c1957611c1482611c79565b6107c5565b8151158015611c3057506001600160a01b0384163b155b15611c72576040517f9996b3150000000000000000000000000000000000000000000000000000000081526001600160a01b0385166004820152602401610ffa565b50806107c5565b805115611c895780518082602001fd5b6040517fd6bda27500000000000000000000000000000000000000000000000000000000815260040160405180910390fd5b60005b83811015611cd6578181015183820152602001611cbe565b50506000910152565b60008151808452611cf7816020860160208601611cbb565b601f01601f19169290920160200192915050565b6020815260006107c56020830184611cdf565b6001600160a01b03811681146107fe57600080fd5b60008060408385031215611d4657600080fd5b8235611d5181611d1e565b946020939093013593505050565b600080600060608486031215611d7457600080fd5b8335611d7f81611d1e565b92506020840135611d8f81611d1e565b929592945050506040919091013590565b600060208284031215611db257600080fd5b5035919050565b634e487b7160e01b600052604160045260246000fd5b60008067ffffffffffffffff841115611dea57611dea611db9565b50604051601f19601f85018116603f0116810181811067ffffffffffffffff82111715611e1957611e19611db9565b604052838152905080828401851015611e3157600080fd5b83836020830137600060208583010152509392505050565b60008060408385031215611e5c57600080fd5b8235611e6781611d1e565b9150602083013567ffffffffffffffff811115611e8357600080fd5b8301601f81018513611e9457600080fd5b611ea385823560208401611dcf565b9150509250929050565b60008060008385036040811215611ec357600080fd5b6020811215611ed157600080fd5b50839250602084013567ffffffffffffffff811115611eef57600080fd5b8401601f81018613611f0057600080fd5b803567ffffffffffffffff811115611f1757600080fd5b866020828401011115611f2957600080fd5b939660209190910195509293505050565b600060208284031215611f4c57600080fd5b81356107c581611d1e565b600082601f830112611f6857600080fd5b6107c583833560208501611dcf565b600080600080600060a08688031215611f8f57600080fd5b8535611f9a81611d1e565b9450602086013567ffffffffffffffff811115611fb657600080fd5b611fc288828901611f57565b945050604086013567ffffffffffffffff811115611fdf57600080fd5b611feb88828901611f57565b9350506060860135611ffc81611d1e565b949793965091946080013592915050565b60006020828403121561201f57600080fd5b813567ffffffffffffffff81111561203657600080fd5b8201608081850312156107c557600080fd5b6000806040838503121561205b57600080fd5b823561206681611d1e565b9150602083013561207681611d1e565b809150509250929050565b600181811c9082168061209557607f821691505b6020821081036120b557634e487b7160e01b600052602260045260246000fd5b50919050565b600080600080608085870312156120d157600080fd5b84356120dc81611d1e565b9350602085013592506040850135915060608501356120fa81611d1e565b939692955090935050565b6000808335601e1984360301811261211c57600080fd5b83018035915067ffffffffffffffff82111561213757600080fd5b60200191503681900382131561214c57600080fd5b9250929050565b6000806040838503121561216657600080fd5b82359150602083013561207681611d1e565b6001600160a01b038416815260606020820152600061219a6060830185611cdf565b82810360408401526001600160a01b0384511681526020840151151560208201526001600160a01b036040850151166040820152606084015160a060608301526121e760a0830182611cdf565b9050608085015160808301528092505050949350505050565b60006020828403121561221257600080fd5b5051919050565b601f82111561101957806000526020600020601f840160051c810160208510156122405750805b601f840160051c820191505b8181101561173f576000815560010161224c565b815167ffffffffffffffff81111561227a5761227a611db9565b61228e816122888454612081565b84612219565b6020601f8211600181146122c257600083156122aa5750848201515b600019600385901b1c1916600184901b17845561173f565b600084815260208120601f198516915b828110156122f257878501518255602094850194600190920191016122d2565b50848210156123105786840151600019600387901b60f8161c191681555b50505050600190811b01905550565b60008251612331818460208701611cbb565b9190910192915050565b808201808211156107a057634e487b7160e01b600052601160045260246000fdfea264697066735822122062b1aca2b2328a2088701f4d09c935db7047f4ddc5c98dcaf6d65dfa73fd853664736f6c634300081a0033",
  "linkReferences": {},
  "deployedLinkReferences": {}
}